:020000040800F2
:10000000D80D0020010100082729000875260008E6
:100010002529000865090008C93D00080000000006
:10002000000000000000000000000000093500088A
:10003000A909000800000000852D000845390008C6
:100040001B0100081B0100081B0100081B01000820
:100050001B0100081B0100081B0100081B01000810
:100060001B0100081B0100081B0100081B01000800
:100070001B0100081B0100081B0100081B010008F0
:100080001B0100081B0100081B0100081B010008E0
:100090001B0100081B0100081B0100081B010008D0
:1000A0001B0100081B0100081B0100081B010008C0
:1000B0001B010008C53900081B0100081B010008CE
:1000C0001B0100081B0100081B0100081B010008A0
:1000D0001B0100081B010008353D00081B0100083A
:1000E0001B0100081B0100081B010008DFF80CD0F1
:1000F00000F08AFA00480047C5460008D80D0020E5
:100100000648804706480047FEE7FEE7FEE7FEE7B1
:10011000FEE7FEE7FEE7FEE7FEE7FEE7C13900087F
:10012000ED0000082DE9F05F0546002092469B4651
:1001300088460646814640241BE0284641464746FD
:10014000224600F020F853465A46C01A914110D377
:1001500011461846224600F0D9F92D1A67EB01081E
:100160004F4622460120002100F0D0F917EB00098C
:100170004E41201EA4F10104DFDC484631462A46E8
:100180004346BDE8F09F202A04DB203A21FA02F022
:100190000021704721FA02F3D040C2F120029140C1
:1001A00008431946704710B5431A934209D2831881
:1001B000881803E010F8011D03F8011D521EF9D242
:1001C00010BD40EA01039B0703D009E008C9121FD4
:1001D00008C0042AFAD203E011F8013B00F8013B01
:1001E000521EF9D210BDD2B201E000F8012B491E17
:1001F000FBD270470022F6E710B513460A460446C4
:100200001946FFF7F0FF204610BD30B505462A46D7
:100210000B4612F8010B13F8014B08B1A042F8D0BD
:100220001CB1002802D06D1CF1E7284630BD10B586
:10023000044604E00B7800F8013B03B1491C521E50
:10024000F8D2204610BDCAB2401E10F8011F8A42E3
:1002500002D00029F9D100207047421C10F8011B80
:100260000029FBD1801A704710B5002200E0521C13
:10027000835C8C5CA34201D1002BF8D1D8B2E1B2EF
:10028000401A10BD034611F8012B00F8012B002A7B
:10029000F9D11846704730B505460020034600E006
:1002A0005B1C934205D2EC5CC85C201A01D1002C87
:1002B000F6D130BD0246C9B200E0401C0378002BE5
:1002C000FBD102E003788B4203D0401E9042F9D26A
:1002D0000020704770B5064604F042F804680546F1
:1002E0000A220021304600F020F92C6070BDF0B4E5
:1002F00080EA0102D40F4200B2EB410F02D2024663
:10030000084611464A0042D0C30DDDB2C1F3C752C0
:10031000AD1A202D35DAC1F3160141F4000204B103
:100320005242C5F1200602FA06F12A411044B3EB0D
:10033000D05F23D0C4B1012DA0EBC35009DCF0BCC9
:100340004FF0004202EAC352DBB200F5000000F0B9
:100350002DB9400000F1807000EBC350A0F1807017
:1003600040EAD170490009E0490841EAC071A0EBB8
:10037000C35000F50000400800EBC350F0BC00F093
:100380000CB96142012202EB4101001BF6E7F0BC0F
:10039000704781F00041AAE780F00040A7E780EABB
:1003A000010210B502F00043400022D04A001FD0E5
:1003B000010E01EB1261C0F35600C2F3560240F485
:1003C000000042F40002A0FB022000047F39140464
:1003D00000D0401C50EA124001D44000491EC2B275
:1003E0000C0604EBD010401C4008802A02D003E029
:1003F000002010BD20F00100002900DA0020184381
:1004000010BD30B480EA010202F0004530F0004235
:1004100021F0004013D090B1C30DD40DC2F31601EA
:10042000C0F31600E41A41F4000140F400027D34E8
:10043000914201D3641C00E04900002C02DA30BC78
:10044000002070474FF400000023914201D3891A25
:10045000034340084FEA4101F7D151B1914202D123
:100460004FF0004105E002D24FF0010101E06FF0D2
:10047000010103EBC450284430BC00F08EB8C10F1A
:1004800080EAE0700844CA079623002100F08EB885
:1004900096230022114600F089B800F0004220F0B7
:1004A0000040C10DC0F3160040F400007F2901DABE
:1004B00000207047962903DCC1F19601C84001E095
:1004C00096398840002AF4D040427047002801DB6A
:1004D000C0F10040002901DBC1F1004181427047B9
:1004E00030B50B46014600202022012409E021FA04
:1004F00002F59D4205D303FA02F5491B04FA02F501
:100500002844151EA2F10102F1DC30BD202A04DBD3
:10051000203A00FA02F1002070479140C2F1200316
:1005200020FA03F31943904070472DE9F0479146B4
:100530000F4680460446002614F8015B2DB100F0FA
:1005400075F80068405DC007F6D12B2D02D02D2D27
:1005500018D0641E4A463946204600F06BF827B191
:100560003968A14201D1C7F8008071054FF002043B
:100570000BD54042002803DD03F0F2FE0460A00723
:10058000BDE8F08746F48066E4E70028F8DA03F077
:10059000E7FE04606FF00040F2E70029A8BF704753
:1005A000401C490008BF20F00100704710B4B0FAA9
:1005B00080FC00FA0CF050EA010404BF10BC704744
:1005C00049B1CCF1200421FA04F411FA0CF118BF5E
:1005D000012121430843A3EB0C01CB1D4FEA00612D
:1005E0004FEA102042BF002010BC704700EBC35000
:1005F00010440029A4BF10BC7047401C490008BF2C
:1006000020F0010010BC7047064C074D06E0E06882
:1006100040F0010394E8070098471034AC42F6D349
:10062000FFF768FD44540008645400080048704710
:10063000145300082DE9F05F824600780027154624
:100640008B460AF10104B946302801D09DB113E070
:1006500014F8010B0127782803D0582801D045B1A0
:100660000AE00DB1102D07D10027102514F8010B59
:1006700002E0082500E00A250026B0460EE005FB52
:10068000080005FB06F1012701EB10461FFA80F870
:10069000B6F5803F00D3B94614F8010B294600F0A7
:1006A00018F80028EBDABBF1000F05D00FB1641E7B
:1006B00000E05446CBF80040B9F1000F06D003F03B
:1006C0004FFE02210160C81EBDE8F09F48EA0640C7
:1006D000FAE73A2800D2303820F02002412A01D32C
:1006E000A2F13700884201D34FF0FF30704700007D
:1006F00070B5044600688168C943C90717D181688D
:1007000021F00101816001F00BF805460AE000BF0D
:1007100001F006F8401B022804D920688068C04315
:10072000C00706D020688068C043C007F0D0002012
:1007300070BDA06A40F01000A062E06A40F00100C5
:10074000E062012070BD0000F8B500260446009666
:1007500000688168C943C9072DD0816841F0010153
:100760008160164816490068B0FBF1F000E0401EB9
:1007700000900028FBD100F0D3FF054616E000BF33
:1007800000F0CEFF401B022810D920688068C043CB
:10079000C0070BD0A06A40F01000A062E06A40F0F1
:1007A0000100E06284F824600120F8BD20688068C0
:1007B000C043C007E4D10020F8BD00006000002065
:1007C00040420F0010B503F035F8462002F0FAFF62
:1007D00003F084F830B90748007802F0F3FF03F023
:1007E0007DF818B103F050F8012010BD03F04CF86B
:1007F000002010BD0000002070B50D4603F01AF86F
:10080000472002F0DFFF03F069F818B103F03CF86D
:10081000012070BD012002F09DFF094C20700020D6
:1008200002F098FF607003F02FF8208840BAFFF7BD
:100830002FFE0449FFF7E5FD2860002070BD000091
:10084000010000209A99993F70B51B480446FFF7B4
:1008500004FDA8B1184820300546FFF7FEFC78B12A
:100860002B46224615A11D4803F056FD1B482B467A
:1008700022461BA1803003F04FFD2B4622460EE09E
:100880001FA321A20DA1154803F046FD13481CA388
:100890001DA213A1803003F03FFD19A31AA21CA1D1
:1008A000244803F039FDBDE870400C4A0B49803202
:1008B00021A003F009BD00006C08002024737973A7
:1008C0002F25732F25732F7468696E672F70726FD1
:1008D00070657274792F706F73740000EC020020E1
:1008E000247379732F25732F25732F7468696E67AE
:1008F0002F70726F70657274792F736574000000C9
:100900006C61623030310000796F7572206964006B
:10091000247379732F25732F25732F7468696E677D
:100920002F70726F70657274792F7365745F726562
:10093000706C7900EC0300205B4D5154545D2054E1
:100940006F70696373204275696C743A0D0A2050A8
:100950004F53543A2025730D0A205345543A20250D
:10096000730D0A00FEE7000000224FF48071014879
:1009700000F0D1BE000C014001221102014800F03C
:10098000CABE0000000C014010B54FF400710448CD
:10099000FFF730FC034800218180017010BD00008A
:1009A0006C000020040000207047000038B50446A9
:1009B000012118A2084602F039F91A4D012CD5F888
:1009C000A401009021D018A318A220211A4803F0F6
:1009D0008BFC194A0121022002F028F9D5F8A80160
:1009E0000090022C13D010A314A22021124803F06F
:1009F0007BFC114A0121032002F018F9BDE83840C0
:100A0000012111A2042002F011B912A3DCE711A305
:100A1000EAE700004D6F6469667920416C65727485
:100A20000000000008080020200000002573546525
:100A30006D703A20256400008C06002025734875EF
:100A40006D203A2025640000536176653A4C6E674C
:100A5000204B31003E00000010B5264C2068FFF707
:100A60001CFD034624A22021274803F03DFC012160
:100A7000254A084602F0DAF86068FFF70EFD0346E3
:100A800022A22021204803F02FFC1F4A012102202E
:100A900002F0CCF8383C2069FFF7FFFC03461FA2A8
:100AA0002021194803F020FC174A0121032002F0FD
:100AB000BDF81EA20121042002F0B8F8207920B16F
:100AC0001D4A3021002002F031F81C48007820B186
:100AD0001B4A3021702002F029F81A4800780028BB
:100AE00006D03021BDE81040174A5A2002F01EB847
:100AF00010BD00004C000020543A25642E432020F5
:100B000020202020202000006C060020483A256488
:100B10002525202020202020202020004C3A25645C
:100B20004C7578202020202020200000202020202C
:100B30002020202020202000044C00080500002058
:100B4000C44B000806000020E44B000872B6FEE724
:100B500006490020C8610648016941F004010161AD
:100B6000016941F04001016170470000B8090020AF
:100B700000200240064A0021D16106490A6942F07C
:100B800002020A614861086940F04000086170474C
:100B9000B809002000200240044B0022DA61044A18
:100BA000136943F00103136101807047B809002005
:100BB0000020024014480022C168CB06134904D526
:100BC000CA6942F00202CA611022C3685B0705D5F8
:100BD000CB6943F00103CB6142F00402C369DB0738
:100BE00007D0CB6943F00403CB61C16921F0010157
:100BF000C161A2F58071013901D0C2607047C1693D
:100C000021F00101C161704700200240B8090020B5
:100C100070B5054600F084FD0646114C09E0681CDD
:100C200007D025B100F07CFD801BA84201D903202C
:100C300070BDE068C007F2D1E068800601D52020D1
:100C4000E060E068C00605D4E069C00702D1E06852
:100C5000400703D5FFF7AEFF012070BD002070BD37
:100C60000020024010B51249124B134C08684FF493
:100C7000D67298420CD12046FFF795FA04F184030E
:100C8000211DBDE81040A3F120020CA003F01CBB05
:100C900011460948FFF7AEFA2820C4F8A4015020F5
:100CA000C4F8A801BDE8104010A003F00DBB00007F
:100CB00000FC00083512A55A080800205B466C614C
:100CC00073685D20436F6E666967204C6F61646571
:100CD000643A20535349443D25732C205049443DE8
:100CE00025732C2049443D25730D0A005B466C6139
:100CF00073685D204E6F2076616C696420636F6E4F
:100D000066696720666F756E642E0D0A000000002C
:100D1000F0B585B0002604460546049600F0F2FBC7
:100D20000096184E0120CDE9026004A9684600F043
:100D300045FB48B100F096FB014613A003F0C4FA4E
:100D400000F096FB05B0F0BD1648206000244FF47B
:100D5000D67700BF24F0030000232A58A1190220EF
:100D600000F090FB20B121460FA003F0ADFA02E0A5
:100D7000241DBC42EED300F07BFB14A003F0A4FAC8
:100D8000E0E7000000FC00085B466C6173685D20D2
:100D90004572617365204572726F723A2025640D49
:100DA0000A0000003512A55A5B466C6173685D202D
:100DB0005772697465204572726F72206174206F7A
:100DC00066667365742025640D0A00005B466C61DD
:100DD00073685D205772697465205375636365732A
:100DE000732E0D0A0000000010B54FF48071034807
:100DF00000F08CFC012800D0002010BD000C014048
:100E000010B52021034800F081FC08B1002010BD7E
:100E1000012010BD000C014010B5094A012802D084
:100E2000022803D009E04FF4805101E04FF4005153
:100E3000104600F06BFC012800D0002010BD00001F
:100E4000000C0140F8B50024009490F824202546B9
:100E5000012A12D0012280F824204A681F23072A81
:100E60000DD20668776B521E02EB820293409F43BD
:100E70000B6893401F43776319E00220F8BD0668B2
:100E80000D2A0AD2376BD21F02EB820293409F4396
:100E90000B6893401F43376309E0F76A0D3A02EB92
:100EA000820293409F430B6893401F43F7620A6896
:100EB000072306680A2A0AD3F7680A3A02EB4202B5
:100EC00093409F438B6893401F43F76008E0376966
:100ED00002EB420293409F438B6893401F4337616C
:100EE0000A68102A01D0112A20D1124B02689A42B6
:100EF00017D193681B0219D4936843F400039360DD
:100F00000968102912D10C490C4A0968B1FBF2F1A9
:100F100001EB8101490000E0491E00910029FBD14D
:100F200004E0816A41F020018162012480F82450AC
:100F30002046F8BD002401406000002040420F0020
:100F40000068C06C704700002DE9F0414FF00007C9
:100F500004003D467ED0A06A002628B9E66284F8E7
:100F60002460204600F07EF82046FFF7C1FBA16A0E
:100F7000C90600D420B1A06A40F01000A06269E068
:100F8000A16A21F4885141F00201A1626268E1691D
:100F9000237B0A4347EA43010A43A1684FF4807761
:100FA000B94209D0012907D05FF0000194F814C0BC
:100FB000BCF1010F02D00AE03946F7E7F3B1A36AAA
:100FC00043F02003A362E36A43F00103E362236872
:100FD000D3F804C02CF4694C4CEA010CC3F804C0EB
:100FE00021688B68DFF870C003EA0C0313438B6041
:100FF000A168B9420BD0012909D00CE0DFF85CC030
:10100000A3690CEB43330B4343F40061DFE7218A10
:101010000D05A5F580152168CB6A23F470032B43D9
:10102000CB62216889680E4B1940914208D1E66273
:10103000A16A21F0020141F00101A162BDE8F08145
:10104000A06A20F0020040F01000A062E06A40F0C8
:101050000100E0620120F1E7FDF7E1FF00E0FFFFA2
:10106000FE0E1FFF00B585B0002100910191029195
:10107000039100680E49884218D10E48816941F4F5
:1010800000718161816901F400710491816941F00D
:10109000040181618069694600F004000490012028
:1010A000009003200190044800F040FA05B000BD14
:1010B0000024014000100240000801402DE9F843DF
:1010C00000270D460446009700F02AFB8046206862
:1010D0008168C90508D5A06A40F02000A06284F8A4
:1010E00024700120BDE8F8834168C90503D4C06AB3
:1010F00010F4700F2AD0022000F0B0FB3B490968C1
:10110000B1FBF0F62068036939490B424FEA6101EF
:101110004FEAA1121FD1C3684FEA611C13EA0C0FFA
:1011200019D103690B4225D1C068104222D1142085
:1011300023E0681C0AD02DB100F0F2FAA0EB080001
:10114000A84203D920680068800725D52068006878
:101150008007EED52DE003690B4202D1C168114230
:1011600006D0026923490A4206D1C068084203D169
:10117000542002E0292000E0FC204643009816E0BD
:10118000681C11D02DB100F0CBFAA0EB0800A842EA
:101190000AD90098B04207D2A06A40F00400A062C9
:1011A00084F8247003209DE70098401C0090B04212
:1011B000E6D321686FF012000860A06A40F4007066
:1011C000A06220688068C0F3424007280CD1207BD1
:1011D00050B9A06A20F48070A062A06AC00403D451
:1011E000A06A40F00100A06200207BE760000020C0
:1011F000244992244992240070B5044690F82400B2
:1012000001280DD0012084F824002046FFF79CFA25
:1012100002004FF0000005D084F82400104670BD95
:10122000022070BDA16A40F20123994341F480710C
:10123000A1621F4D23681F49AB4218D10E6816F4F6
:10124000702F14D0A66A46F48016A6620E68760542
:1012500005D5A66A26F4005646F48056A662A66A0C
:10126000F6040AD5E66A26F00606E66206E0A66AF5
:1012700026F48016A6625E68E9E7E06284F824003E
:101280006FF00200186020688368C3F34243072BA5
:1012900005D1A84208D1096811F4702F04D08168E3
:1012A00041F480118160B9E7816841F4A001F9E758
:1012B000002801400424014010B590F821100022BC
:1012C000022905D00421816380F82020012010BD6F
:1012D00001680B6823F00E030B6001680B6823F0B4
:1012E00001030B6090F84030C46B012101FA03F355
:1012F000636080F8211080F82020104610BD0000A7
:1013000010B590F821100024022903D00421816334
:1013100001243DE001680A6822F00E020A600168BB
:101320000A6822F001020A601A4A0168914201D15A
:10133000012121E0174A1432914201D110211BE012
:10134000144A2832914201D1891515E0114A3C32E4
:10135000914201D189140FE00E4A5032914202D1DC
:101360004FF4803108E00B4A6432914202D14FF4CD
:10137000801101E04FF08071064A083A5160012166
:1013800080F82110002180F82010416B01B18847BE
:10139000204610BD0800024070B5044600F0C0F9B8
:1013A0000546601C02D004480078044400F0B8F9F7
:1013B000401BA042FAD370BD540000202DE9F04735
:1013C000054626480F460126017E01290FD001213E
:1013D000814601762868DFF888804CF25034022874
:1013E00008D0A2462046FFF713FCA8B131E0022046
:1013F000BDE8F0872046FFF70BFC08BB0120FFF794
:10140000A7FB2046FFF704FCD8F81010064621F091
:101410000401C8F810101CE04FF0FF303860AC68D1
:1014200011E02046FFF7A6FB5046FFF7F1FBD8F886
:101430001010060021F00201C8F8101001D03C6025
:1014400007E004F58064D5E9020100EB8120A042A9
:10145000E7D8002189F818103046C9E7B8090020FC
:10146000002002400148C06970470000B809002010
:101470000348016941F080010161002070470000CC
:10148000002002402DE9F05F07461C4888460024F2
:10149000017E15461E46012909D0012181460176AB
:1014A0004CF2503A5046FFF7B3FB18B122E002204D
:1014B000BDE8F09F012F02D0022F00D00427D346B1
:1014C000DFF83CA0220128463146FEF75CFE81B2DF
:1014D00008EB4400FFF760FB5846FFF799FBDAF88A
:1014E000102022F00102CAF8102018B9641CE4B2DE
:1014F000BC42E7D3002289F81820D9E7B8090020B8
:1015000000200240064900200A69120607D5054A54
:101510004A60054A4A600969090600D501207047FA
:101520000020024023016745AB89EFCD2DE9F84F3C
:10153000DFF8B8910024A9F1040B23460F2709F125
:10154000040AABF1040EC9E00125A5402A40AA42D5
:101550007DD1674ED1F804C0ACEB0608B44532D05B
:1015600014DCBCF1030F3AD009DCBCF1000F2AD027
:10157000BCF1010F1CD0BCF1020F31D11DE0BCF158
:10158000110F17D0BCF1120F2AD119E0B8F5881F3E
:1015900019D006DCB8F5803F15D0B8F5801F1FD1F3
:1015A00011E0B8F5001F0ED0B8F5041F18D10AE0FD
:1015B000CB6815E0CB681B1D12E0CB6808330FE049
:1015C000CB680C330CE08B682BB1012B4FF0080378
:1015D00003D0456104E0042302E0056100E000233C
:1015E000FF2A01D8064601E000F104064FEA84050F
:1015F00001D9A5F12005D6F8008007FA05FC28EAF4
:101600000C0803FA05F548EA0508C6F800804D689D
:10161000ED0062D5374DAE6946F00106AE61AD69A9
:1016200024F0030605F001050095334D06EB050C8B
:10163000DCF80850A607360F07FA06F825EA080571
:10164000DFF8B880404503D14FF0000817E044E0D0
:10165000DFF8AC80404502D14FF001080FE0DFF821
:10166000A480404502D14FF0020808E0DFF89880DE
:10167000404502D14FF0030801E04FF0040808FA9A
:1016800006F848EA0508CCF808804D68D9F80060EB
:10169000ED024D4601D5164300E096432E604D689D
:1016A000DAF80060AD02554601D5164300E09643D6
:1016B0002E604D68DBF80060AD035D4601D5164332
:1016C00000E096432E604D68DEF80060ED0375463D
:1016D00001D5164300E096432E60641C0D682A462F
:1016E000E5407FF431AFBDE8F88F00000804014009
:1016F00000001110001002400000014000080140ED
:10170000000C0140001001400014014080680840B6
:1017100000D0012070470AB1016170470904FBE75E
:10172000014880687047000054000020024881682A
:10173000027811448160704754000020074810B5BA
:10174000016841F010010160032000F075F80F20DE
:1017500000F006F800F024F8002010BD0020024040
:1017600070B50D4D04464FF47A712878B1FBF0F056
:101770000A490968B1FBF0F000F0AAFB48B9102C47
:1017800007D200222146501E00F036F800206C607F
:1017900070BD012070BD00005400002060000020DA
:1017A0000C4808B5816941F001018161816901F04E
:1017B00001010091C16941F08051C161C06900F02F
:1017C000805000900448416821F0E06141F00071D0
:1017D000416008BD0010024000000140002809DB04
:1017E00000F01F02012191404009800000F1E0203B
:1017F000C0F8001170470000F0B40E4B1B680C4697
:10180000C3F30223C3F10705042D00D90425191DD4
:10181000072901D2002300E0DB1E012606FA05F1AC
:10182000491E214099409E40761E16403143F0BC2F
:1018300002F086BD0CED00E0064900F007020868E2
:101840004FF6FF03184040EA0220034A10430860A5
:10185000704700000CED00E00000FA0510B50146ED
:101860000020234C012922D0022939D010291DD172
:1018700061682268D20119D51E48C1F38342C903A9
:10188000805C0AD561681B4AC1F34041921E515CDD
:10189000194AB2FBF1F1484301E018494843616835
:1018A000490203D440000321B0FBF1F010BD226ACD
:1018B000C2F30121012903D1920701D5C80310BD4C
:1018C000022905D1626A920702D549F6404010BD4F
:1018D0000329FCD121688903F9D54FF2244010BDBA
:1018E00000F030F96168C1F38131491C4900DBE740
:1018F000001002406852000800127A0000093D0002
:101900002DE9F84305460078354CC00754D0E0690E
:101910000026C00008D4E06940F08050E061E06932
:10192000012600F0805000902E480168C90512D4AD
:101930000168804641F480710160FFF7F1FE0746BF
:1019400005E000BFFFF7ECFEC01B642823D8D8F8E1
:101950000000C005F6D5206A10F4407021D0A98897
:1019600001F4407181421CD0206A1F49012220F4F9
:1019700040700A6000220A602062C00711D0FFF7A1
:10198000CFFE074641F2883808E000BFFFF7C8FEE7
:10199000C11B414502D90320BDE8F883206A8007B6
:1019A000F4D5206A696820F44070084320621EB1B3
:1019B000E06920F08050E0612878800705D56068F4
:1019C000A96820F44040084360602878C00605D527
:1019D0006068E96820F48000084360600020DBE76D
:1019E0000010024000700040400442422DE9F047E0
:1019F0000F46050061D0434E306800F00700B84242
:101A000009D2306820F0070038433060306800F0B9
:101A10000700B84251D128683B4C810712D54007D6
:101A200003D5606840F4E06060602878000703D563
:101A3000606840F4605060606068A96820F0F00061
:101A4000084360602878C00728D06868012810D053
:101A50002168022810D0890700292EDA616821F058
:101A6000030101436160FFF75BFE804641F2883964
:101A70000DE021688903EFE78901EDE7FFF750FEEC
:101A8000A0EB0801494502D90320BDE8F087606852
:101A9000696800F00C00B0EB810FEFD1306800F006
:101AA0000700B8420BD9306820F007003843306097
:101AB000306800F00700B84201D00120E5E728783F
:101AC000400705D56068E96820F4E060084360607D
:101AD0002878000706D56068296920F4605040EA3C
:101AE000C100606000F03EF86168084AC1F303116C
:101AF000515CC8400649086006480068FFF730FEA0
:101B00000020C2E700200240001002407852000886
:101B10006000002058000020014800687047000065
:101B2000600000200448054900684968044AC1F380
:101B30000221515CC8407047600000200010024044
:101B4000885200080448054900684968044AC1F3FE
:101B5000C221515CC8407047600000200010024064
:101B6000885200080E4A51680E4801F00C03042BFD
:101B700011D0082B0FD10C48C1F38343C903C05CBB
:101B80000AD55168084AC1F34041921E515C054A8A
:101B90005043B0FBF1F070470449484370470000E0
:101BA0000010024000127A005652000800093D0061
:101BB0002DE9F84F040070D02078C04DC00749D0FF
:101BC0006868C0F38100012807D06868C0F381000D
:101BD000022809D16868C00306D52868800339D572
:101BE00060680028E7D035E06068B0F5803F0BD032
:101BF00010B1B0F5A02F11D0286820F480302860F3
:101C0000286820F4802002E0286840F480302860B2
:101C1000606890B1FFF784FD06460AE0286840F44A
:101C200080202860F0E700BFFFF77AFD801B642862
:101C300073D828688003F7D50CE0FFF771FD0646DE
:101C400005E000BFFFF76CFD801B6428F0D8286812
:101C50008003F7D420789A4E80074FF001094FF0A7
:101C6000000839D5686810F00C0F07D06868C0F319
:101C70008100022809D16868C00306D4286880075B
:101C800014D52069012808D110E02069B0B1C6F848
:101C90000090FFF745FD074605E00AE1FFF740FD2C
:101CA000C01B0228C4D828688007F7D52868616956
:101CB00020F0F80040EAC10028600DE0C6F800807E
:101CC000FFF72EFD074604E0FFF72AFDC01B0228A0
:101CD00023D828688007F7D4207800072CD57948C6
:101CE000A169D9B1C0F80090FFF71AFD074604E0DA
:101CF000FFF716FDC01B02280FD8686A8007F7D5CA
:101D000071484FF4FA510068B0FBF1F0009000BF49
:101D10000098411E0091FAD20EE080E0C0F80080E9
:101D2000FFF7FEFC074604E0FFF7FAFCC01B0228A1
:101D300075D8686A8007F7D42078400760D5E869CD
:101D40000027C00008D4E86940F08050E861E869E5
:101D5000012700F0805000905C480168C90513D449
:101D60000168834641F480710160FFF7D9FC824627
:101D700006E000BFFFF7D4FCA0EB0A0064284ED8B1
:101D8000DBF80000C005F5D5E06801280AD008B1ED
:101D9000052813D0286A20F001002862286A20F064
:101DA000040002E0286A40F001002862E06841F285
:101DB000883B98B1FFF7B4FC82460BE0286A40F0FC
:101DC00004002862EEE700BFFFF7AAFCA0EB0A01BF
:101DD00059455AD8286A8007F6D50CE0FFF7A0FCD1
:101DE000824605E0FFF79CFCA0EB0A0159454CD860
:101DF000286A8007F6D41FB1E86920F08050E861B6
:101E0000E06988B36968C1F38101022944D00228DE
:101E1000C6F8608004D0FFF783FC044638E034E065
:101E2000FFF77EFC074604E0FFF77AFCC01B0228A0
:101E30002BD828688001F7D4206AB0F5803F05D1FF
:101E40006868A16820F4003008436860D4E908019C
:101E50000843696821F4741108436860C6F860900B
:101E6000FFF75EFC044606E025E000BFFFF758FCE4
:101E7000001B022809D828688001F7D51BE000BFA5
:101E8000FFF74EFC001B022802D90320BDE8F88FA3
:101E900028688001F4D40EE00128F7D06868226A2F
:101EA00000F48031914204D1616A00F470108842DC
:101EB00001D00120EAE70020E8E70000001002401E
:101EC0000000424280044242600000200070004056
:101ED00010B5401EB0F1807F01D3012010BD4FF03E
:101EE000E02460610F21601702F02AFA0020A0614F
:101EF00007202061002010BD7047704770B590F832
:101F00003C20012A26D0012480F83C40022280F89F
:101F10003D2003685A689D6822F070060A683243C3
:101F20005A600D4B02689A4208D0B2F1804F05D03A
:101F30000A4B9A4202D00A4B9A4204D1496825F0D2
:101F400080031943916080F83D40002180F83C10E7
:101F5000084670BD022070BD002C01400004004006
:101F60000008004010B5040003D094F83D0010B103
:101F700007E0012010BD002084F83C00204600F05E
:101F80001FF8022084F83D00211D206801F020FD8B
:101F9000012084F8460084F83E0084F83F0084F86D
:101FA000400084F8410084F8420084F8430084F83B
:101FB000440084F8450084F83D00002010BD000076
:101FC00008B500680B49884212D10B48C16941F03D
:101FD0000201C161C069002200F0020000901146B8
:101FE0001D20FFF709FCBDE808401D20FFF7F6BBE8
:101FF00008BD0000000400400010024070B5044617
:1020000090F83C000025012817D0012684F83C6098
:10201000022084F83D002068826822F0770222F4D2
:102020007F4282600868502838D00DDC20284FD0CD
:1020300005DC90B3102811D14AE0022070BD302891
:1020400046D040280AD13BE060282FD070280DD020
:10205000B0F5805F03D0B0F5005F12D0012584F8A1
:102060003D60002084F83C00284670BDCB68D1E973
:102070000121206801F0E8FC2068816841F07701C7
:1020800009E0CB68D1E90121206801F0DDFC20687E
:10209000816841F480418160E1E719E0CA684968DC
:1020A000206801F0E3FC5021206806E0CA68496816
:1020B000206801F0ECFC6021206801F0CFFCCEE745
:1020C000CA684968206801F0D1FC40212068F4E723
:1020D000226801461046F0E770472DE9F0410446BA
:1020E0000068C66805694FF00007A90713D5B10756
:1020F00011D5F91E016101202077206880698007D1
:10210000204602D0FFF7E8FF04E000F07EF820460A
:1021100000F07CF82777680716D5700714D521687A
:102120006FF004000861022020772068806910F4B5
:10213000407F204602D0FFF7CFFF04E000F065F8B3
:10214000204600F063F82777280715D5300713D508
:1021500021686FF008000861042020772068C069BA
:102160008007204602D0FFF7B7FF04E000F04DF8EB
:10217000204600F04BF82777E80616D5F00614D570
:1021800021686FF010000861082020772068C0697E
:1021900010F4407F204602D0FFF79EFF04E000F0DD
:1021A00034F8204600F032F82777E80708D0F00727
:1021B00006D021686FF001000861204600F027F882
:1021C000280608D5300606D521686FF08000086122
:1021D0002046FFF791FE680608D5700606D52168EF
:1021E0006FF040000861204600F012F8A8060AD5FA
:1021F000B00608D521686FF0200008612046BDE8D0
:10220000F041FFF77ABEBDE8F08170477047704734
:102210007047704770470000F8B5016804460868C9
:10222000CA684B6910F00F0F4FF0000559D003F04A
:10223000010602F49077374365D0C10705D0D10578
:1022400003D5616C41F001016164410705D5D907EF
:1022500003D0616C41F002016164810705D5D907A3
:1022600003D0616C41F004016164010707D502F0FD
:102270002001314303D0616C41F008016164616C5D
:1022800000293AD0800604D5900602D5204601F0F8
:102290003FFC20684069616CC0F38010090700D4DE
:1022A00060B3204601F00DFC20684069400621D54E
:1022B0002068143050E8001F21F0400140E800126F
:1022C000002AF5D1E06BA8B16D494163E06BFFF7DF
:1022D00017F8002811D0E06B416B01B0BDE8F04069
:1022E000084783060FD593060DD52046BDE8F84074
:1022F00001F00EBC2046FFF78DFFF8BD2046FFF72A
:1023000089FF6564F8BD266B2023012E7CD1C606AB
:102310007AD5D60678D508684868009048694FF0A5
:102320000206400640D5E16B086840680004000CD6
:10233000E8D0A28D8242E5D9E085886920282DD099
:1023400020680C3050E8001F21F4807140E8001232
:10235000002AF5D12068143050E8001F21F0010157
:1023600040E80012002AF5D12068143050E8001F20
:1023700021F0400140E80012002AF5D184F84230F3
:10238000256320680C3050E8001F21F0100140E860
:102390000012002AF5D1E06BFEF78EFF6663A08D78
:1023A000E18D401A81B22AE0A08DE18D401A81B200
:1023B000E08D0028A6D00029A4D022680C3252E873
:1023C000000F20F4907042E80007002FF5D120683C
:1023D000143050E8002F22F0010240E80027002FBF
:1023E000F5D184F84230256320680C3050E8002F86
:1023F00022F0100240E80023002BF5D1666320464E
:10240000FFF707FFF8BDFFE705062BD5150629D511
:1024100094F841002128F5D1A068B0F5805F01D182
:102420002069B0B1206A411C2162216800784860AF
:10243000E08C401E0004000CE084E3D12068C168F9
:1024400021F08001C1602068C16841F04001C16095
:10245000D8E7206A0088C0F308004860206A801C22
:102460002062E5E74006CDD55006CBD5CA682046A8
:1024700022F04002CA6084F8413000F0FAF8C1E767
:10248000B33A000870B5040004D094F84100002568
:1024900010B106E0012070BD84F84050204600F0E5
:1024A00023F8242084F841002068C16821F40051F9
:1024B000C160204601F08EFB2068016921F4904143
:1024C00001612068416921F02A0141612068C168E9
:1024D00041F40051C1606564202084F8410084F813
:1024E00042006563002070BD70B586B00024009482
:1024F0000194029403942B4E03682B49022003227B
:102500002A4DB34221D18B6943F480438B618B699F
:1025100003F4804304938B6943F004038B6189695E
:10252000039201F0040104910102CDE90010694613
:102530002846FEF7FBFF2815CDE90004694628462A
:102540000294FEF7F3FF06B070BD194EB342FAD104
:10255000CB6943F40033CB61CB6903F400330493BC
:102560008B6943F004038B618969039201F00401D4
:1025700004910421CDE9001069462846FEF7D6FFF4
:102580000820CDE90004694628460294FEF7CEFFF4
:10259000002211462620FFF72FF92620FFF71EF90B
:1025A000D1E700000038014000100240000801405F
:1025B0000044004090F84230202B01D002207047A8
:1025C00021B11AB10023036301F060BB0120704701
:1025D00070472DE9F843044690F8410098461646A6
:1025E0000D46202802D00220BDE8F88385B17EB1D7
:1025F00000206064212084F84100FFF791F8A68450
:102600008146E684A0682027B0F5805F02D003E011
:102610000120E9E7206910B12E4600250EE00026D2
:102620000CE08021204601F04CFBA8B9C6B116F899
:10263000010B21684860E08C401EE084E08C4B4632
:102640004FF00002CDF800800028EAD14FF04001A1
:10265000204601F036FB40B184F841700320C3E707
:1026600035F8020BC0F30800E3E784F8417000205E
:10267000BAE77047FEE770B50D460646FFF746F825
:10268000012808D11420FEF787FE29463046FFF7BF
:102690003DF8012801D0002070BD00240EE00A2082
:1026A000FEF77AFE641CA4B2C82C07D9294630462E
:1026B000FFF72CF80128F9D0022070BD29463046DA
:1026C000FFF724F80128EAD0012070BD0122202163
:1026D0000148FFF720B80000000C01400022202133
:1026E0000148FFF718B80000000C01402DE9F04147
:1026F000002580462C462E462F46404600F01FF807
:1027000045197C410220FEF747FE761C0A2EF4DBB9
:102710000A22002328462146FDF704FDBDE8F0818A
:1027200010B5FFF7E3FF40F6FF71B0F5805F00D30F
:10273000084664225043B0FBF1F0C0B210BD10B5A2
:102740000446FEF759FD0A212046FEF7B7FC08B102
:10275000002010BD2046BDE81040FEF7F1BB000090
:102760003EB5002411480094019402940E498460FF
:10277000016004730475012505614FF46021446014
:10278000C161FEF7E1FB08B1FEF7E0F90520009416
:10279000CDE9015069460548FEF754FB002801D0F9
:1027A000FEF7D4F93EBD000000240140AC06002035
:1027B0002DE9F04385B0002421480094019402944F
:1027C0000394816941F020018161816901F0200158
:1027D0000491816941F004018161816901F0040182
:1027E0000491816941F0080181618069DFF85490AA
:1027F00000F008004BF220170490002239464846AA
:10280000FEF789FF0225DFF84080CDE9005401265C
:10281000694640460296FEF789FEE0208DE83100C9
:1028200069464046FEF782FECDE900766946484695
:10283000CDE90245FEF77AFE05B0BDE8F083000061
:1028400000100240000C01400008014010B586B0A5
:1028500000241748009401940294039404941349AB
:10286000059401604721C0E9011442F20F71C0E9EB
:1028700003148461FFF776FB08B1FEF767F94FF4A4
:102880008050009069460A48FFF7B8FB08B1FEF790
:102890005DF9049404A906480594FFF72FFB00286E
:1028A00001D0FEF753F906B010BD0000000400404F
:1028B000300700200C4810B50A4901604FF4E1319F
:1028C0004160002181600C22C160C0E90412816175
:1028D000C161FFF7D7FD002803D0BDE81040FEF727
:1028E00035B910BD00380140780700200C4810B5FC
:1028F0000A4901604FF4E1314160002181600C22FE
:10290000C160C0E904128161C161FFF7BBFD00280D
:1029100003D0BDE81040FEF719B910BD00440040D7
:10292000C0070020FEE7FEE770B500240021204626
:1029300000F0EAF80025002000F09CF96D1CEDB2D3
:10294000802DF8D3641CE4B2082CEFD370BD0000D6
:10295000114810B5816986B041F008018161806934
:102960000E4C00F008000490C0200090112001904F
:10297000012002900320039069462046FEF7D6FD11
:10298000012240212046FEF7C6FE0122802120467A
:10299000FEF7C1FE06B010BD00100240000C014061
:1029A0002DE9F0410024144D0746802626FA04F054
:1029B000384201D0012200E0002280212846FEF7A3
:1029C000AAFE012240212846FEF7A5FE0022402152
:1029D0002846FEF7A0FE641CE4B2082CE6D30122D0
:1029E00040212846FEF797FE2846BDE8F041002228
:1029F0004021FEF790BE0000000C014010B50B4CCA
:102A0000012280212046FEF786FE01224021204639
:102A1000FEF781FE002280212046FEF77CFE204644
:102A20000022BDE810404021FEF775BE000C0140B9
:102A300010B5094C002280212046FEF76CFE0122D1
:102A400040212046FEF767FE20460122BDE81040E7
:102A50008021FEF760BE0000000C014008B5002098
:102A6000009028480099491C00918142FAD3FFF751
:102A70006FFFAE2000F0EDF8D52000F0EAF88020DE
:102A800000F0E7F8A82000F0E4F83F2000F0E1F8BB
:102A9000D32000F0DEF8002000F0DBF8402000F04A
:102AA000D8F8A12000F0D5F8C82000F0D2F8DA203C
:102AB00000F0CFF8122000F0CCF8812000F0C9F827
:102AC000CF2000F0C6F8D92000F0C3F8F12000F0C4
:102AD000C0F8DB2000F0BDF8302000F0BAF8A420E8
:102AE00000F0B7F8A62000F0B4F88D2000F0B1F89F
:102AF000142000F0AEF8AF2000F0ABF8BDE80840BD
:102B0000FFF712BF40420F0010B50C4640F0B00076
:102B100000F09FF8102040EA141000F09AF804F03A
:102B20000F00BDE8104000F094B800002DE9F05F00
:102B300017468846834600244FF0010A002604F019
:102B4000070135463046E208C1F107014FEA0A03A2
:102B500002EB400C17F80CC02CFA01FC5FEACC7CAD
:102B600005D003FA00FC4CEA060C0CF0FF06401CF2
:102B7000C0B20828ECD3082002EB4003FB5CCB403A
:102B8000DB0705D0A0F1080C0AFA0CF32B43DDB2E9
:102B9000401CC0B21028EFD30BEB040909F0FF0171
:102BA0004FEAD800FFF7B0FF304600F063F809F0B5
:102BB000FF010AEBD800FFF7A7FF284600F05AF8FC
:102BC000641CE4B2102CB9D3BDE8F09F2DE9F041AC
:102BD000203A0646D5B240006FF00502801E02EB97
:102BE000C1074FF0FF38C0B2F9B2FFF78DFF0E48B2
:102BF000002400EB0515285D00F03CF8641CE4B2ED
:102C0000082CF8D308EB4600F9B2C0B2FFF77CFFFE
:102C100000242819007A00F02DF8641CE4B2082C76
:102C2000F7D3BDE8F0810000444C00082DE9F041E5
:102C300015460E460746002406E03019C1B2384654
:102C4000FFF7C4FF641CE4B22A5D002AF5D1BDE899
:102C5000F08110B50446FFF7D1FE7820FFF7A0FE03
:102C60000020FFF79DFE2046FFF79AFEBDE81040CA
:102C7000FFF7DEBE10B50446FFF7C0FE7820FFF771
:102C80008FFE4020FFF78CFE2046FFF789FEBDE84F
:102C90001040FFF7CDBE000010B502210348FEF73B
:102CA00035FD012800D0002010BD000000080140C3
:102CB0002DE9F0410D462DA1FDF7A7FA002830D0EF
:102CC0003A21FDF7C0FA00282BD02C21401CFDF73B
:102CD000BAFA002825D0461C40784FF00008222878
:102CE00002D085F800801BE0761C22213046FDF7DB
:102CF000AAFA040011D0A01B87B2402F00D33F27AF
:102D00003A4631462846FDF792FA05F80780617881
:102D1000601C46462C2906D002E018A001F0D4FA27
:102D20000020BDE8F0812C21401CFDF78CFA002822
:102D3000F7D0401C04460D21FDF785FA18B920464E
:102D4000FDF78BFA2044001B87B2FF2F00D9FF2725
:102D50003A46214605F14000FDF769FAE81980F886
:102D6000406085F840610120DBE700002B4D5154A5
:102D700054535542524543563A0000003F3F3F0AE4
:102D8000000000007047000030B505460146E9B07C
:102D900041A001F099FA202150A8FDF72BFA40211B
:102DA00040A8FDF727FA202158A8FDF723FA202193
:102DB00060A8FDF71FFA4FF4807421466846FDF7BE
:102DC00019FA202350AA3AA1284601F001FC402319
:102DD00040AA39A1284601F0FBFB202358AA37A1BD
:102DE000284601F0F5FB202360AA35A1284601F012
:102DF000EFFB23466A4633A1284601F0E9FB50A8C1
:102E0000FDF72BFA002845D040A8FDF726FA002848
:102E100040D02DA001F058FA4FF4D6713048FDF79C
:102E2000E9F92F4850A9001DFDF72CFA2C4840A9BC
:102E30002430FDF727FA2A4858A96430FDF722FA12
:102E4000274860A98430FDF71DFA25486946A4305B
:102E5000FDF718FA2248FDF75BFFFFF765FD01213A
:102E600020A20846FFF7E2FE22A201210220FFF77E
:102E7000DDFE4FF4FA60FEF78FFABFF34F8F214863
:102E80000168214A01F4E06111430160BFF34F8FF3
:102E900000BFFDE769B030BD5B436F6E6669675D7B
:102EA0002052656365697665643A2025730D0A00D2
:102EB00073736964000000007077640070696400D7
:102EC000696400006B6579005B436F6E6669675DDE
:102ED00020536176696E672E2E2E0D0A00000000C9
:102EE00008080020436F6E66696720536176656449
:102EF000210000005265626F6F74696E672E2E2E7E
:102F0000000000000CED00E00400FA052DE9F0419E
:102F1000A8B004465C49FDF7A7F900287DD14034EC
:102F2000A046214659A001F0CFF95FA14046FDF728
:102F30006CF9060071D07D21FDF7BCF905006CD05D
:102F400000272F7059A1304601F07AFB584C59A147
:102F5000A062304601F074FBE06258A1304601F0F7
:102F60006FFB206357A1304601F06AFB606355A1F7
:102F7000304601F065FB606354A1304601F060FB10
:102F8000A06155A1304601F05BFBE06155A13046E0
:102F900001F056FB20627D202870A06901250028E1
:102FA00009DB01283ED02771514A30210020FFF76C
:102FB000BDFDFDF7D9FC20224E4920A8FDF7F3F80E
:102FC000202220A9404601F0D9FAE06A002807DB58
:102FD00001282ED0FDF7C8FC47A000BF01F074F90E
:102FE000A06A002803DB012827D0FFF76FFB206BC6
:102FF000002803DB012823D000F0A4F9606B00282F
:1030000003DB01281FD000F0ADF9E1693D4E002936
:103010001FDD481E632819D800E032E03AA0C6F848
:10302000A41114E025713D4A30210020FFF77EFDF8
:10303000C1E7FDF7A1FC3AA0D0E7FFF74FFBD6E7C9
:1030400000F088F9DAE700F095F9DEE737A001F043
:103050003BF9216A002909DD481E632803D83DA0F9
:10306000C6F8A81100E040A001F02EF920AB48A25C
:103070008021684601F038F969464F48FDF702F9AA
:10308000257028B0BDE8F0816C0300205B4F6E65B1
:103090004E657420434D445D2052656365697665D5
:1030A000643A2025730D0A007B0000004C45440063
:1030B00014000020416C61726D00000052454C41CB
:1030C0005931000052454C41593200007365637517
:1030D000726974790000000074656D5F616C6572DF
:1030E0007400000068756D5F616C657274000000AB
:1030F000244C00083452000862656570206F6666D3
:103100000D0A0000080800205365742074656D5F87
:10311000616C6572743A2025640D0A00044C000845
:1031200062656570206F6E0D0A000000496E766161
:103130006C69642074656D5F616C6572743A2025FA
:103140006420286D75737420626520312D31303014
:10315000290D0A005365742068756D5F616C657296
:10316000743A2025640D0A00496E76616C6964200A
:1031700068756D5F616C6572743A20256420286DF6
:1031800075737420626520312D313030290D0A00AD
:103190007B226964223A222573222C22636F6465A4
:1031A000223A3230302C226D7367223A22737563D3
:1031B00063657373227D00006C0200202DE9F043EB
:1031C000384DADF5117D2878002860D03649AA88A1
:1031D0004FF0000801F8028085F800800F463C4659
:1031E0003CE032A12046FDF710F806003AD0301B33
:1031F00080B28146FF2801D9FF2081460246214640
:103200006846FCF7D0FF44460DF8098028A16846BF
:10321000FCF7FBFF78B140A96846FFF749FD40B1D4
:1032200050AA40A926A001F04FF840A8FFF76EFE73
:1032300013E02EA006E035A16846FCF7E6FF20B1BA
:10324000AC7034A001F040F807E03CA16846FCF700
:10325000DCFF10B16846FFF797FDB41C14B120786D
:103260000028BED1BC4216D92046FCF7F6FF86B234
:10327000701EB0F5FF7F0ED8324621463846FCF767
:1032800092FFC6F50071B819FCF7B4FFAE800DF5DA
:10329000117DBDE8F0830DF5117DBDE8F043FDF72C
:1032A00073BB0000040000206C0000200D0A000029
:1032B0002B4D515454535542524543563A00000049
:1032C0004D515454206D6573736167652070617250
:1032D000736564207375636365737366756C6C796D
:1032E0003A202573203D3E2025730A004D51545449
:1032F000206D6573736167652070617273696E67B5
:10330000206661696C65640A00000000434C4F53FD
:10331000454400005B4D5154545D20436F6E6E6513
:103320006374696F6E20636C6F73656420627920CB
:103330007365727665722E0A000000002B495044B6
:103340000000000000224FF480510148FEF7E3B96D
:10335000000C0140012211030148FEF7DCB9000016
:10336000000C014000224FF400510148FEF7D3B990
:10337000000C0140012251030148FEF7CCB90000C6
:10338000000C014030B585B000241348009401942E
:1033900002940394816941F00801816180690F4DB5
:1033A00000F00800049022464FF480512846FEF7B2
:1033B000B2F9002269142846FEF7ADF94FF44050E7
:1033C00000900120CDE901040220039069462846BF
:1033D000FEF7ACF805B030BD00100240000C014013
:1033E00010B5104C30202070A220607000F022FA3E
:1033F000882000F0E7F900F071FA58B9207800F061
:10340000E1F900F06BFA28B9607800F0DBF900F020
:1034100065FA18B100F038FA012010BD00F034FA56
:10342000002010BD0A00002070B5324C24200D464B
:1034300020700020607000F0FDF9882000F0C2F9D3
:1034400000F04CFAC0B9207800F0BCF900F046FA60
:1034500090B9607800F0B6F900F040FA60B900F079
:1034600013FA1420FDF798FF00F0E4F9892000F02A
:10347000A9F900F033FA18B100F006FA012070BD86
:10348000012000F067F91B4CA41C2070012000F003
:1034900061F96070012000F05DF9A070012000F07A
:1034A00059F9E070012000F055F92071002000F07A
:1034B00051F9607100F0E8F92088B4F8031040BABF
:1034C0004CBAFCF7E5FF0C49FCF769FF0B4E31469F
:1034D000FCF797FF0A49FCF70AFF28602046FCF733
:1034E000D7FF0849FCF75BFF3146FCF78AFF6860AD
:1034F000002070BD0A00002000002F4300FF7F471E
:10350000000034C20000C842704700002DE9F04FAF
:103510008DB045494548FFF787FFDFF80C8120B1A2
:103520000021C8F80010C8F804103F493F48283966
:10353000FDF762F93C4C383C10B14FF07E502061F1
:10354000FFF7AAFB60703A48FFF7EAF8FCF7A0FF24
:103550006061FDF749FCA070FDF752FCE0700220AD
:10356000FDF75AFC08B133A700E034A70120FDF7AE
:1035700053FC08B12FA600E030A64FF400413148BB
:10358000FEF7C4F801281AD02CA52069FCF785FFA6
:1035900082466069FCF781FF8146D8F80400FCF799
:1035A0007CFF8346D8F80000FCF777FF03462648E7
:1035B000227900F5D27003C81AB11EA202E01DA53F
:1035C000E3E71EA2CDE90872CDE90A01607808B1EF
:1035D00018A100E019A105A8CDF810A080E86200AC
:1035E000E17809B113A200E014A2A17809B111A4F5
:1035F00000E012A4CDF800B0CDF80C90CDE9014266
:10360000124A4FF40071124800F06EFE1049002279
:10361000A1F5C07000F0C4FC0DB00D49BDE8F04F3D
:103620000CA000F051BE00004C000020DC06002081
:10363000AC060020747275650000000066616C7352
:1036400065000000000C0140080800201853000825
:103650006C0400205061796C6F61643A2025730D11
:103660000A00000010B5124C002240212046FEF74F
:1036700052F8206820F070402060206840F04050F0
:103680002060002280212046FEF745F8022000F04D
:1036900067FF012240212046FEF73DF8022000F09E
:1036A0005FFF20460022BDE810404021FEF733B8FE
:1036B000000C0140114810B5816986B041F0080145
:1036C000816180690E4C00F008000490C0200090D9
:1036D00011200190012002900320039069462046AA
:1036E000FDF724FF012240212046FEF714F80122B5
:1036F00080212046FEF70FF806B010BD00100240F2
:10370000000C014010B5124C002240212046FEF76B
:1037100002F8206820F070402060206840F040509F
:103720002060012280212046FDF7F5FF022000F0F5
:1037300017FF012240212046FDF7EDFF022000F097
:103740000FFF20460022BDE810404021FDF7E3BFF7
:10375000000C01402DE9F041194C07460025206876
:1037600020F070402060206840F00040206072B679
:103770002E46002240212046FDF7CDFF022000F01A
:10378000EFFE012240212046FDF7C5FF6806050E29
:1037900080212046FDF7BAFF08B16D1CEDB2012073
:1037A00000F0DEFE761CF6B2082EE2D362B627B138
:1037B000FFF758FF2846BDE8F081FFF7A3FFF9E7C0
:1037C000000C014070B51A4E05463046316821F0B4
:1037D00070413160316841F0405131600022402138
:1037E000FDF799FF72B60024280601D5012200E0FA
:1037F000002280213046FDF78EFF6806050E02206C
:1038000000F0AEFE012240213046FDF784FF022089
:1038100000F0A6FE002240213046FDF77CFF02208A
:1038200000F09EFE641CE4B2082CDDD362B670BDCD
:10383000000C014010B572B6124C206820F07040A8
:103840002060206840F04050206001228021204606
:10385000FDF761FF012240212046FDF75CFF0420B7
:1038600000F07EFE002280212046FDF754FF042058
:1038700000F076FE002240212046FDF74CFF62B6A4
:1038800010BD0000000C014010B572B6124C20684B
:1038900020F070402060206840F0405020600022FE
:1038A00040212046FDF737FF002280212046FDF70A
:1038B00032FF042000F054FE012240212046FDF793
:1038C0002AFF012280212046FDF725FF042000F079
:1038D00047FE62B610BD0000000C014070B5184CE8
:1038E0000025206820F070402060206840F00040F3
:1038F0002060012280212046FDF70DFF012000F00D
:103900002FFE012240212046FDF705FF012000F097
:1039100027FE07E06D1CEDB2FA2D03D9FFF7B4FFC7
:10392000012070BD80212046FDF7F0FE0028F1D176
:10393000002240212046FDF7EEFE002070BD000071
:10394000000C0140FDF7F2BE30B593B02821684667
:10395000FCF750FC14210AA8FCF74CFC00250120C0
:103960000F9510951195010412958DE82300049090
:103970004FF4E010CDE90810022407946846FEF7E2
:1039800017F908B172B6FEE70AA90F2081E83100E5
:103990004FF48060CDE90D0502210AA8FEF726F854
:1039A00008B172B6FEE74FF4004011900F940FA8D3
:1039B000FDF7A6FF002801D072B6FEE713B030BDB8
:1039C000704700000148FEF788BB00003007002068
:1039D000F0B50268194B1A4C1A4D4FF080479842C7
:1039E00005D0B84203D0A04201D0A84203D122F0B2
:1039F00070064A683243984205D0B84203D0A042CC
:103A000001D0A84203D122F44074CA6822434C6911
:103A100022F08002224302608A68C2620A688262DF
:103A2000984201D109690163012141610169C90716
:103A300003D0016921F001010161F0BD002C0140BA
:103A4000000400400008004010B5846842EA0322E8
:103A500024F47F440A432243826010BD826822F02E
:103A600070020A4342F007018160704710B5036A93
:103A7000046A24F001040462846924F0F00444EA36
:103A8000021423F00A020A438461026210BD10B5D9
:103A9000036A046A24F010040462846923F0A0031A
:103AA00024F4704444EA023243EA01118261016263
:103AB00010BD10B5406A0021C185C184FEF7AAFB84
:103AC00010BD01680C3151E8002F22F4907241E8DA
:103AD0000023002BF5D10168143151E8002F22F0AA
:103AE000010241E80023002BF5D1016B012909D126
:103AF00001680C3151E8002F22F0100241E8002348
:103B0000002BF5D1202180F842100021016370477D
:103B100008B590F84210222901D0022008BD826821
:103B20004FF480539A4201D1016921B1816A9A42CE
:103B30001BD04AB10AE00268816A5268C2F30802E7
:103B40000A80816A891C08E0026972B102685268C1
:103B500002F07F020A70816A491C8162C18D491E90
:103B60000904090CC18503D01BE002685268F1E723
:103B70000168CA6822F02002CA600168CA6822F49B
:103B80008072CA6001684A6922F001024A612021FC
:103B900080F8421000214163026B012A03D0FEF736
:103BA00017FD002008BD016301680C3151E8002FAA
:103BB00022F0100241E80023002BF5D101680A68C9
:103BC000D20602D50A6849680091818DFEF721FB73
:103BD000E7E7000070B5044600680169E26821F477
:103BE0004051114301612169A0680843616908439C
:103BF0002168CA6841F20C639A430243CA60206894
:103C00004169A26921F44071114341611E49206854
:103C1000884202D1FDF796FF01E0FDF783FF00EB3C
:103C2000C00101EB0012606864218000B2FBF0F378
:103C3000B3FBF1F36FF018067343B2FBF0F5B2FB80
:103C4000F0F605EB8305322303EB0515B5FBF1F523
:103C5000B6FBF1F605F0F00505EB0615B2FBF0F644
:103C6000B2FBF0F0B0FBF1F06FF01802504306EB3E
:103C7000800003EB0010B0FBF1F0216800F00F00B2
:103C80002844886070BD0000003801408162828550
:103C9000C28500214164222180F84210016921B1CE
:103CA0000168CA6842F48072CA6001684A6942F0D9
:103CB00001024A610068C16841F02001C160002032
:103CC00070472DE9F843984617460D460446089E6E
:103CD00024E0701C22D0FDF723FDA0EB0800B042C9
:103CE0001AD8CEB12068C168490717D5802D15D0E4
:103CF000402D13D00168C94309070FD4016800257E
:103D0000406800902046FFF7DCFE0820606484F8DD
:103D100040500120BDE8F8830320FBE720680068DD
:103D200035EA000004D00020B842D2D00020F1E7EC
:103D30000120F9E7F8B5204C216808681F4E83067A
:103D40001F4A20484FF0010521D5CB689B061ED5A0
:103D50004968CBB20188B1F5FF7F11D801885718A7
:103D6000491C01803B700A2B0CD10188022909D320
:103D70000088104410F8020C0D2803D1357001E0C2
:103D8000FCF702FE21686FF0200008600EE00B686F
:103D9000DB060BD5CB68DB0608D50C680023496829
:103DA0000091018811B1008813543570BDE8F840C6
:103DB0000148FEF731BA0000C007002004000020CF
:103DC0006C00002008000020FEE7000010B54FF452
:103DD0007A740223224609A10AA000F0B3F9204612
:103DE000FDF7DAFAFCF7D0FD0A4909488988BDE8F1
:103DF0001040014401220848FEF7DCBB7265616493
:103E00007900000041542B5253540D0A0000000069
:103E10006C00002004000020C007002070B5284C72
:103E2000C2B06078002848D00123C82225A126A06E
:103E300000F088F94FF496752846FDF7ADFA27484B
:103E40002749006888420ED1244884300646FCF792
:103E500004FA40B121483246A430A0F1400300905A
:103E600020A101A805E02AA000902CA32DA21DA14D
:103E700001A800F051FA01A92CA000F025FA0223B4
:103E80002A4610A101A800F05DF9002815D040F2E3
:103E90005B732FA233A101A800F03EFA01A938A05C
:103EA00000F012FA02234FF47A7206A101A800F082
:103EB00049F9002801D00120A07042B070BD000077
:103EC000040000204F4B000041542B4D51545444EA
:103ED0004953434F4E4E3D300D0A00000808002064
:103EE0003512A55A41542B4D515454555345524304
:103EF00046473D302C312C222573222C222573225B
:103F00002C222573222C302C302C22220D0A00006A
:103F1000796F7572206B657900000000796F75729A
:103F2000206964006C616230303100005B444542BE
:103F300055475D204D515454205573657220436F91
:103F40006E66696720434D443A20257300000000E7
:103F50006D717474732E6865636C6F7564732E6312
:103F60006F6D000041542B4D515454434F4E4E3D04
:103F7000302C222573222C25642C310D0A000000E0
:103F80005B44454255475D204D51545420436F6E6C
:103F90006E65637420434D443A2025730000000091
:103FA00070B505460E48CCB0144680780E46002801
:103FB00014D00846FCF751F903462A4609A101A886
:103FC000009400F0A9F901A800F06EF94FF4FA701E
:103FD000FDF7E2F9304600F067F901204CB070BD02
:103FE0000400002041542B4D51545450554252412D
:103FF000573D302C222573222C25642C25642C302F
:104000000D0A000000B50A4A99B092786AB10B46D1
:10401000024608A1684600F07FF90223C8220BA1DE
:10402000684600F08FF819B000BD0020FBE70000E3
:104030000400002041542B4D5154545355423D30FF
:104040002C222573222C25640D0A00004F4B000002
:1040500010B5A0B00223322221A122A000F072F8F4
:1040600000283AD0022332221DA120A000F06AF8D5
:10407000002832D0012000F09BF800282DD001202C
:1040800000F096F8002828D01A4C1B492068884276
:1040900009D1201DFCF7E1F828B104F12403221D09
:1040A00016A1684603E01BA31EA214A1684600F0F7
:1040B00033F9012341F2883209A1684600F042F841
:1040C00000280AD00223642205A119A000F03AF8C2
:1040D000002802D01A490120487020B010BD00000D
:1040E0004F4B000041540D0A000000004154453080
:1040F0000D0A0000080800203512A55A41542B4330
:10410000574A41503D222573222C222573220D0A45
:1041100000000000776966692070617373776F72C1
:1041200064000000796F757220776966690000008D
:1041300041542B4349504D55583D300D0A00000065
:10414000040000202DE9FF5F0024984616468B46A8
:10415000DFF85490A2460A2721E0009800F0A4F866
:10416000002516E00A20FDF717F999F800104846D7
:1041700071B180F800A059460C48FCF746F828B108
:10418000FCF702FC012004B0BDE8F09FFCF7FCFB4B
:104190006D1CB6FBF7F0A842E4D8641CE4B24445B9
:1041A000DBD30020EFE70000040000206C000020BB
:1041B00000B589B0024606A1684600F0ADF80323B9
:1041C000642207A16846FFF7BDFF09B000BD0000EB
:1041D00041542B43574D4F44453D25640D0A000083
:1041E0004F4B000030B50C460546A1B002234FF4FA
:1041F000FA720AA10AA0FFF7A5FF00280CD02346F7
:104200002A460BA1684600F087F802234FF4FA62B1
:1042100002A16846FFF796FF21B030BD4F4B00006A
:1042200041542B43574D4F44453D320D0A00000089
:1042300041542B43575341503D222573222C2225B4
:1042400073222C352C330D0A0000000010B50446F3
:1042500090B002234FF4FA7209A10AA0FFF772FF8F
:1042600000280BD022460BA1684600F055F8022327
:104270004FF47A7202A16846FFF764FF10B010BDD8
:104280004F4B000041542B4349504D55583D310D83
:104290000A00000041542B434950534552564552A1
:1042A0003D312C25640D0A0010B50446FBF7D5FFFF
:1042B000214682B2BDE810404FF0FF330148FEF7BF
:1042C00088B90000C00700200FB4054B10B503A942
:1042D000044A029800F058F810BC5DF814FB000086
:1042E00029460008640000200FB41CB502460020D7
:1042F00007AC00290BD0491ECDE90021054B6A46C9
:104300002146069800F040F8009A002111701CBC6C
:104310005DF814FB414500080FB4084B10B504A923
:1043200002AA039800F030F8044602A9002000F029
:1043300012F9204610BC5DF814FB00005745000838
:104340000907090E002804DB00F1E02080F80014C2
:10435000704700F00F0000F1E02080F8141D704756
:10436000004870476800002002E008C8121F08C11A
:10437000002AFAD170477047002001E001C1121FE6
:10438000002AFBD1704700002DE9FF4F8BB09A4601
:104390000F460546002606E025280BD052460D990B
:1043A00090476D1C761C28780028F5D10FB0304658
:1043B000BDE8F08F0024A0460122604900E00443DC
:1043C00015F8013F203B02FA03F00842F7D12878A4
:1043D0002E2817D115F8010F44F004042A280ED016
:1043E0006FF02F022878A0F1300109290AD808EBD4
:1043F000880102EB410100EB01086D1CF2E757F860
:10440000048B6D1C287869283ED006DC0028CDD0AE
:1044100063280BD0642804D136E0732810D07528A7
:104420004BD052460D999047761C85E017F8040B47
:104430008DF8000000208DF80100E946012003E01E
:1044400057F8049B4FF0FF3061074FF0000401D490
:104450000AE0641C44450DDA8442FADB19F80410C2
:104460000029F6D106E0641C8442FCDB19F8041034
:104470000029F8D1264404E019F8010B52460D99A1
:104480009047641EF8D257E001CF4FF00A0B002886
:1044900002DA40422D2102E0210504D52B218DF8BE
:1044A0002410012103E0E10705D02021F7E70DF1F9
:1044B000200908910CE00021F9E701CF4FF00A0B29
:1044C000F9E75946FCF70CF801F1300209F8012D23
:1044D0000028F6D1ADEB090000F1200B600701D4F4
:1044E0004FF00108D84502DDA8EB0B0000E00020EA
:1044F0008046002406E009A85246005D0D999047C9
:10450000641C761C08988442F5DB04E03020524697
:104510000D999047761CB8F10001A8F10108F5DC6F
:1045200005E019F8010B52460D999047761CBBF136
:104530000001ABF1010BF4DC6D1C34E7092801002C
:104540004A68002A06D00A68531C0B60107048683D
:10455000401E486070470A68531C0B60107070471B
:1045600010B50446FDF7D8FA0349B0FBF1F16143F9
:10457000491EFDD210BD000040420F0070B50D462F
:10458000144611A1FBF741FE00281CD03A21FBF78D
:104590005AFE002817D000BF10F8011F19B12029BA
:1045A000FAD02229F8D00023641E02E0E954401C0E
:1045B0005B1C017829B1222903D02C2901D0A34208
:1045C000F4D30020E85470BD22696422000000008A
:1045D000F0B5174689B004460A461D4610A1684644
:1045E000FFF79AFE69462046FBF70FFE040014D041
:1045F0006846FBF732FE061922213046FBF723FE00
:1046000000280AD0841BAC4200D36C1E22463146DF
:104610003846FBF70CFE0020385509B0F0BD00000D
:10462000222573223A22000013B54FF0FF330122F6
:1046300069460248FDF7CDFF00981CBD78070020B1
:1046400030B58DB004460A4618A16846FFF764FEEF
:1046500069462046FBF7D9FD04004FF0FF351CD01A
:104660006846FBF7FAFD044400E0641C207820282B
:10467000FBD004220FA12046FBF70DFE80B10522DE
:104680000EA12046FBF707FE002807D02078A0F1F6
:104690003001092906D92D2804D028460DB030BD97
:1046A0000120FBE72046FBF715FEF7E722257322E2
:1046B0003A000000747275650000000066616C735A
:1046C000650000001CB5FDF739F8FFF73DF9FEF76E
:1046D0006FF8FEF745F8FEF7EDF8FEF707F9FEF77D
:1046E000B5F8FEF7E7FFC848FEF77AFEC648FCF7C4
:1046F00069F8FEF7B3F9FCF7B5FAFCF7A5F8C3A023
:10470000FFF7E2FDC7480068C16841F01001C160D1
:10471000FFF75CFBFEF736FE4FF4FA60FCF73CFE59
:10472000C1A0FFF7D1FDFFF793FCDFF814A3C54D3F
:10473000C8B19AF8000020B1C34A30217020FEF7BA
:10474000F5F9FFF76BFB70B1287820B1BF4A302133
:104750005A20FEF7EBF90021BD48FFF753FC4FF458
:104760007A70FCF719FEDFF8F0B241F28837B94EE3
:104770004FF00009DFF8E482ABF13804FEF71EFDCC
:10478000207878B1B649B7A0FFF79EFDB449002262
:1047900001F5C070FFF704FC84F800908021B04858
:1047A000FBF728FDFCF7BCFFE168401AB84208D3CC
:1047B000FCF7B6FFE060FEF7A9FE607908B9FCF7E8
:1047C0004BF9287878B9FCF7ABFF616A401A42F2DE
:1047D0001071884207D9FCF7A3FF6062A9A0FFF718
:1047E00073FDFFF71BFB20213046FDF744FFA0714E
:1047F00040213046FDF73FFFE07180213046FDF754
:104800003AFF20726179A07921B101287AD002287B
:1048100077D0B6E0012802D002280ED009E00120AE
:104820002071A24A30210020FEF780F9A0A0FFF7F6
:104830004BFDE079012823D02EE0A2A0FFF744FD34
:10484000FEF772F80121A5A20846FEF7EFF9A6A22D
:1048500001210220FEF7EAF9A7A201210320FEF7B9
:10486000E5F9A9A1ABA0FFF7BDFC41F69070FFF7F9
:10487000EDFC00BFFEF7A2FC0A20FCF78DFDF9E776
:1048800084F80490A74A30210020FEF74FF9FCF786
:104890006BF8A5A0FFF718FD207A022806D10120A9
:1048A0006071FEF741F8A5A0FFF70EFDD8F8A4014E
:1048B000FBF7E5FDDBF80010FBF708FE08D3D8F89E
:1048C000A801FBF7DCFDDBF80410FBF7FFFD7AD253
:1048D000FCF78AFA002876D1DBF80400FBF7DDFD4F
:1048E0000190DBF80000FBF7D8FD0146D8F8A801DD
:1048F0000090D8F8A43198A0019AFFF7E5FC62E097
:1049000000E012E00129414607D0D1F8A80164284F
:1049100037DA401CC8F8A80133E0D1F8A4016428B4
:104920002FDA401CC8F8A4012BE04C48FCF7F0F942
:1049300084F80590FDF7F8FF012193A20846FEF7E1
:1049400075F94FF47A70FCF727FDFDF7EDFF9AF843
:10495000000020B13C4A30217020FEF7E7F82878AB
:1049600020B13A4A30215A20FEF7E0F8207920B1F0
:104970004E4A30210020FEF7D9F8FCF76DF8C4F854
:104980000C90E07901280AD16079414601280AD0CB
:10499000D1F8A801012802DD401EC8F8A801207A3C
:1049A000012808D00CE0D1F8A4010128F7DD401E51
:1049B000C8F8A401F3E76079012823D001206071D1
:1049C0006079FBF7F3FF2079C0B14FF400417048E4
:1049D000FCF79CFE012802D0FEF75EF970B1FBF7F0
:1049E000CBFFFEF759F900904FF400416848FCF7FF
:1049F0008DFE014667A0009AFFF766FC6420FCF775
:104A0000CBFCBBE60220DAE7DC0600203D3D3D2082
:104A100053544D333220696E6974206F6B203D3DD5
:104A20003D0D0A00C00700203D3D3D205749464945
:104A300020696E6974206F6B20203D3D3D0D0A009A
:104A40000500002006000020C44B0008E44B0008CD
:104A50006C030020000801404C00002008080020E2
:104A60006C0200205B4F6E654E6574205245504CC1
:104A7000595D2053656E64696E673A2025730D0A8F
:104A8000000000005B4D5154545D204C6F73742046
:104A9000636F6E6E656374696F6E2C2072657472DD
:104AA00079696E672E2E2E0D0A000000044C000856
:104AB0005365637572697479204D6F6465204F4E3C
:104AC0000D0A0000456E74657220436F6E6669675B
:104AD000204D6F64652E2E2E0D0A0000436F6E660A
:104AE0006967204D6F646500535349443A53544DF0
:104AF00033325F436667000049503A3139322E3114
:104B000036382E342E3100003132333435363738D2
:104B10000000000053544D33325F436F6E66696787
:104B200000000000244C00085365637572697479B5
:104B3000204D6F6465204F46460D0A00456E746532
:104B40007220416C657274204D6F64696679204DE6
:104B50006F64650D0A00000074656D703D25642C5E
:104B60002068756D3D25642C2074656D5F616C65F2
:104B700072743D25642C2068756D5F616C6572747C
:104B80003D25640D0A000000536176656421000034
:104B9000000C01405B44454255475D2069734275F6
:104BA0007A7A65725F4F6E20646F6F725F76616CA8
:104BB00075653A2025642C2048756D616E3A202574
:104BC000640D0A00000000001FF83FFCFFFFF00F1B
:104BD000E7E70FF01FF81C38018003C003C0018015
:104BE0000000000007E00FF83FFC3FFE7FFE73CFA0
:104BF00071CFF3AFF2EF726F7FFE3FFE3FFC1FF805
:104C000007E00000000003C00C3020042004200452
:104C10002024244426C423842004100818080420D7
:104C200003C00000000000000000000000000000C1
:104C30000000000000000000000000000000000074
:104C40000000000000000000000000000000000064
:104C500000000000000000F8000000000000003329
:104C60003000000000100C06100C060000000000D0
:104C70000000000040C07840C0784000043F0404B9
:104C80003F040400007088FC08300000001820FF7A
:104C9000211E0000F008F000E018000000211C03B5
:104CA0001E211E0000F00888700000001E21232431
:104CB0001927211010160E0000000000000000004F
:104CC00000000000000000E01804020000000007DF
:104CD0001820400000020418E000000000402018E6
:104CE00007000000404080F0804040000202010FB9
:104CF00001020200000000F0000000000101011F9D
:104D000001010100000000000000000080B0700000
:104D10000000000000000000000000000001010190
:104D2000010101010000000000000000003030001F
:104D300000000000000000008060180400601806F9
:104D40000100000000E010080810E000000F102033
:104D500020100F00001010F8000000000020203F7D
:104D60002020000000700808088870000030282407
:104D700022213000003008888848300000182020A8
:104D800020110E000000C02010F8000000070424CD
:104D9000243F240000F80888880808000019212012
:104DA00020110E0000E0108888180000000F11206C
:104DB00020110E0000380808C83808000000003F25
:104DC000000000000070880808887000001C222184
:104DD00021221C0000E010080810E0000000312231
:104DE00022110F00000000C0C000000000000030D1
:104DF0003000000000000080000000000000806023
:104E000000000000000080402010080000010204A3
:104E1000081020004040404040404000040404048A
:104E20000404040000081020408000000020100846
:104E300004020100007048080808F000000000307B
:104E400036010000C030C828E810E0000718272409
:104E500023140B000000C038E0000000203C2302B7
:104E60000227382008F8888888700000203F20201A
:104E700020110E00C030080808083800071820204C
:104E80002010080008F808080810E000203F202043
:104E900020100F0008F88888E8081000203F202024
:104EA0002320180008F88888E8081000203F200018
:104EB00003000000C0300808083800000718202050
:104EC000221E020008F808000008F808203F21010F
:104ED00001213F20000808F8080800000020203FBA
:104EE0002020000000000808F8080800C08080802A
:104EF0007F00000008F888C028180800203F200123
:104F00002638200008F8080000000000203F20207C
:104F10002020300008F8F800F8F80800203F003F93
:104F2000003F200008F830C00008F808203F2000AB
:104F300007183F00E01008080810E0000F102020BC
:104F400020100F0008F808080808F000203F210191
:104F500001010000E01008080810E0000F182424E8
:104F600038504F0008F8888888887000203F20005B
:104F7000030C302000708808080838000038202111
:104F800021221C00180808F8080818000000203F1B
:104F90002000000008F808000008F808001F202082
:104FA00020201F000878880000C838080000073853
:104FB0000E010000F80800F80008F800033C0700A4
:104FC000073C0300081868808068180820302C030C
:104FD000032C30200838C800C83808000000203FE3
:104FE0002000000010080808C838080020382621D2
:104FF00020201800000000FE020202000000007FD6
:1050000040404000000C30C00000000000000001E3
:105010000638C00000020202FE00000000404040CE
:105020007F000000000004020202040000000000F3
:105030000000000000000000000000008080808070
:105040008080808000020204000000000000000058
:1050500000000000000080808080000000192422F1
:1050600022223F2008F8008080000000003F11202D
:1050700020110E000000008080800000000E112032
:1050800020201100000000808088F800000E112010
:1050900020103F200000808080800000001F22221E
:1050A00022221300008080F0888888180020203F8A
:1050B000202000000000808080808000006B94949D
:1050C0009493600008F8008080800000203F210059
:1050D00000203F2000809898000000000020203F22
:1050E00020200000000000809898000000C0808010
:1050F000807F000008F8000080808000203F2402AC
:105100002D302000000808F8000000000020203F9B
:10511000202000008080808080808000203F200050
:105120003F20003F8080008080800000203F2100E1
:1051300000203F200000808080800000001F202091
:1051400020201F00808000808000000080FFA120C0
:1051500020110E000000008080808000000E1120D1
:1051600020A0FF80808080008080800020203F2160
:105170002000010000008080808080000033242413
:1051800024241900008080E0808000000000001FBF
:10519000202000008080000000808000001F202070
:1051A00020103F20808080000080808000010E3031
:1051B0000806010080800080008080800F300C0392
:1051C0000C300F0000808000808080000020312E95
:1051D0000E312000808080000080808080818E7071
:1051E0001806010000808080808080000021302C23
:1051F0002221300000000000807C0202000000003C
:10520000003F404000000000FF00000000000000E0
:10521000FF0000000002027C800000000040403FD0
:10522000000000000006010102020404000000006A
:10523000000000003000000000000000000000003E
:10524000000000000000000000000000000000005E
:1052500000000000010202030405060708090A0B0A
:105260000C0D0E0F101001020203040506070809B9
:105270000A0B0C0D0E0F10100000000000000000C3
:1052800001020304060708090000000001020304EC
:105290000040404040404040404041414141414049
:1052A00040404040404040404040404040404040FE
:1052B000400502020202020202020202020202028D
:1052C0000220202020202020202020020202020292
:1052D00002029090909090901010101010101010EA
:1052E00010101010101010101010101002020202F6
:1052F000020288888888888808080808080808083A
:105300000808080808080808080808080202020235
:1053100040000000915200087B226964223A223149
:105320003233222C22706172616D73223A7B2254D7
:10533000656D70223A7B2276616C7565223A256430
:105340007D2C2248756D223A7B2276616C75652230
:105350003A25647D2C22416C61726D223A7B227663
:10536000616C7565223A25737D2C224C4544223AA6
:105370007B2276616C7565223A25737D2C226761EC
:1053800073223A7B2276616C7565223A25647D2C06
:10539000226C7578223A7B2276616C7565223A25FB
:1053A000647D2C2268756D616E223A7B2276616C79
:1053B0007565223A25737D2C22646F6F72223A7BC9
:1053C0002276616C7565223A25737D2C2252454CFC
:1053D000415931223A7B2276616C7565223A2573F8
:1053E0007D2C2252454C415932223A7B2276616C07
:1053F0007565223A25737D2C227365637572697415
:1054000079223A7B2276616C7565223A25737D2C70
:105410002274656D5F616C657274223A7B227661DD
:105420006C7565223A25647D2C2268756D5F616C10
:10543000657274223A7B2276616C7565223A256426
:105440007D7D7D0064540008000000206C00000099
:1054500068430008D05400086C0000206C0D000068
:105460007843000810000000000000000000000069
:10547000000000000000000000000000000000002C
:10548000000000000000000000000000000000001C
:10549000000000000000000000000000000000000C
:1054A00000000000000000000000000000000000FC
:1054B00000000000000000000100000010000000DB
:1054C0000000000000127A00000000000000000050
:04000005080000ED02
:00000001FF
