:020000040800F2
:10000000800D0020010100080F2800085D25000870
:100010000D28000845090008A93B00080000000061
:100020000000000000000000000000000133000894
:100030008909000800000000692C00082537000825
:100040001B0100081B0100081B0100081B01000820
:100050001B0100081B0100081B0100081B01000810
:100060001B0100081B0100081B0100081B01000800
:100070001B0100081B0100081B0100081B010008F0
:100080001B0100081B0100081B0100081B010008E0
:100090001B0100081B0100081B0100081B010008D0
:1000A0001B0100081B0100081B0100081B010008C0
:1000B0001B010008A53700081B0100081B010008F0
:1000C0001B0100081B0100081B0100081B010008A0
:1000D0001B0100081B010008153B00081B0100085C
:1000E0001B0100081B0100081B010008DFF80CD0F1
:1000F00000F078FA00480047A5440008800D002071
:100100000648804706480047FEE7FEE7FEE7FEE7B1
:10011000FEE7FEE7FEE7FEE7FEE7FEE7A1370008A1
:10012000ED0000082DE9F05F0546002092469B4651
:1001300088460646814640241BE0284641464746FD
:10014000224600F020F853465A46C01A914110D377
:1001500011461846224600F0C6F92D1A67EB010831
:100160004F4622460120002100F0BDF917EB00099F
:100170004E41201EA4F10104DFDC484631462A46E8
:100180004346BDE8F09F202A04DB203A21FA02F022
:100190000021704721FA02F3D040C2F120029140C1
:1001A00008431946704710B5431A934209D2831881
:1001B000881803E010F8011D03F8011D521EF9D242
:1001C00010BD40EA01039B0703D009E008C9121FD4
:1001D00008C0042AFAD203E011F8013B00F8013B01
:1001E000521EF9D210BDD2B201E000F8012B491E17
:1001F000FBD270470022F6E710B513460A460446C4
:100200001946FFF7F0FF204610BD30B505462A46D7
:100210000B4612F8010B13F8014B08B1A042F8D0BD
:100220001CB1002802D06D1CF1E7284630BD10B586
:10023000044604E00B7800F8013B03B1491C521E50
:10024000F8D2204610BDCAB2401E10F8011F8A42E3
:1002500002D00029F9D100207047421C10F8011B80
:100260000029FBD1801A704710B5002200E0521C13
:10027000835C8C5CA34201D1002BF8D1D8B2E1B2EF
:10028000401A10BD034611F8012B00F8012B002A7B
:10029000F9D11846704730B505460020034600E006
:1002A0005B1C934205D2EC5CC85C201A01D1002C87
:1002B000F6D130BD0246C9B200E0401C0378002BE5
:1002C000FBD102E003788B4203D0401E9042F9D26A
:1002D0000020704770B5064603F032FF04680546FB
:1002E0000A220021304600F00DF92C6070BDF0B4F8
:1002F00080EA0102D40F4200B2EB410F02D2024663
:10030000084611464A0042D0C30DDDB2C1F3C752C0
:10031000AD1A202D35DAC1F3160141F4000204B103
:100320005242C5F1200602FA06F12A411044B3EB0D
:10033000D05F23D0C4B1012DA0EBC35009DCF0BCC9
:100340004FF0004202EAC352DBB200F5000000F0B9
:100350001AB9400000F1807000EBC350A0F180702A
:1003600040EAD170490009E0490841EAC071A0EBB8
:10037000C35000F50000400800EBC350F0BC00F093
:10038000F9B86142012202EB4101001BF6E7F0BC23
:10039000704781F00041AAE780F00040A7E780EABB
:1003A000010210B502F00043400022D04A001FD0E5
:1003B000010E01EB1261C0F35600C2F3560240F485
:1003C000000042F40002A0FB022000047F39140464
:1003D00000D0401C50EA124001D44000491EC2B275
:1003E0000C0604EBD010401C4008802A02D003E029
:1003F000002010BD20F00100002900DA0020184381
:1004000010BD30B480EA010202F0004530F0004235
:1004100021F0004013D090B1C30DD40DC2F31601EA
:10042000C0F31600E41A41F4000140F400027D34E8
:10043000914201D3641C00E04900002C02DA30BC78
:10044000002070474FF400000023914201D3891A25
:10045000034340084FEA4101F7D151B1914202D123
:100460004FF0004105E002D24FF0010101E06FF0D2
:10047000010103EBC450284430BC00F07BB8962344
:100480000022114600F07FB800F0004220F000404A
:10049000C10DC0F3160040F400007F2901DA0020EE
:1004A0007047962903DCC1F19601C84001E09639F6
:1004B0008840002AF4D04042704730B50B460146D0
:1004C00000202022012409E021FA02F59D4205D3F3
:1004D00003FA02F5491B04FA02F52844151EA2F19D
:1004E0000102F1DC30BD202A04DB203A00FA02F1DF
:1004F000002070479140C2F1200320FA03F3194312
:10050000904070472DE9F04791460F4680460446DB
:10051000002614F8015B2DB100F076F80068405D0C
:10052000C007F6D12B2D02D02D2D18D0641E4A46BF
:100530003946204600F06CF827B13968A14201D154
:10054000C7F8008071054FF002040BD54042002827
:1005500003DD03F0F5FD0460A007BDE8F08746F475
:100560008066E4E70028F8DA03F0EAFD04606FF043
:100570000040F2E70029A8BF7047401C490008BFAF
:1005800020F00100704710B4B0FA80FC00FA0CF0C3
:1005900050EA010404BF10BC704749B1CCF12004FB
:1005A00021FA04F411FA0CF118BF01212143084388
:1005B000A3EB0C01CB1D4FEA00614FEA102042BFB4
:1005C000002010BC704700EBC35010440029A4BFAA
:1005D00010BC7047401C490008BF20F0010010BC4F
:1005E00070470000064C074D06E0E06840F001034C
:1005F00094E8070098471034AC42F6D3FFF77AFD31
:10060000245000084450000800487047384F000844
:100610002DE9F05F82460078002715468B460AF1E7
:100620000104B946302801D09DB113E014F8010B44
:100630000127782803D0582801D045B10AE00DB130
:10064000102D07D10027102514F8010B02E0082512
:1006500000E00A250026B0460EE005FB080005FB79
:1006600006F1012701EB10461FFA80F8B6F5803F2E
:1006700000D3B94614F8010B294600F018F80028F9
:10068000EBDABBF1000F05D00FB1641E00E0544659
:10069000CBF80040B9F1000F06D003F051FD022164
:1006A0000160C81EBDE8F09F48EA0640FAE73A2814
:1006B00000D2303820F02002412A01D3A2F13700C5
:1006C000884201D34FF0FF307047000070B50446F8
:1006D00000688168C943C90717D1816821F0010109
:1006E000816000F091FF05460AE000BF00F08CFF3A
:1006F000401B022804D920688068C043C00706D088
:1007000020688068C043C007F0D0002070BDA06A98
:1007100040F01000A062E06A40F00100E0620120B9
:1007200070BD0000F8B50026044600960068816898
:10073000C943C9072DD0816841F001018160164885
:1007400016490068B0FBF1F000E0401E0090002860
:10075000FBD100F059FF054616E000BF00F054FF42
:10076000401B022810D920688068C043C0070BD006
:10077000A06A40F01000A062E06A40F00100E06270
:1007800084F824600120F8BD20688068C043C00759
:10079000E4D10020F8BD00005400002040420F00CA
:1007A00010B502F037FF462002F0FCFE02F086FF93
:1007B00030B90748007802F0F5FE02F07FFF18B16B
:1007C00002F052FF012010BD02F04EFF002010BDCC
:1007D0000000002070B50D4602F01CFF472002F01B
:1007E000E1FE02F06BFF18B102F03EFF012070BD88
:1007F000012002F09FFE094C2070002002F09AFEBA
:10080000607002F031FF208840BAFFF738FE0449DB
:10081000FFF7F7FD2860002070BD000001000020F8
:100820009A99993F70B51B480446FFF716FDA8B189
:10083000184820300546FFF710FD78B12B462246B8
:1008400015A11D4803F058FC1B482B4622461BA14E
:10085000803003F051FC2B4622460EE01FA321A25C
:100860000DA1154803F048FC13481CA31DA213A1B9
:10087000803003F041FC19A31AA21DA1254803F002
:100880003BFCBDE870400C4A0B49803222A003F0CB
:100890000BBC000020080020247379732F25732FD0
:1008A00025732F7468696E672F70726F706572742C
:1008B000792F706F73740000E00400202473797343
:1008C0002F25732F25732F7468696E672F70726FD1
:1008D00070657274792F7365740000006C6162300A
:1008E0003031000041304E4A32645A31426A0000D1
:1008F000247379732F25732F25732F7468696E679E
:100900002F70726F70657274792F7365745F726582
:10091000706C7900E00500205B4D5154545D20540B
:100920006F70696373204275696C743A0D0A2050C8
:100930004F53543A2025730D0A205345543A20252D
:10094000730D0A00FEE7000000224FF48071014899
:1009500000F055BE000C014001221102014800F0D8
:100960004EBE0000000C014010B54FF40071044869
:10097000FFF740FC034800218180017010BD00009A
:1009800060000020040000207047000010B5012125
:1009900088B01EA2084602F0BBF81E4C2068FFF784
:1009A00073FD03461CA22021684603F08DFB6A46B6
:1009B0000621012002F0ACF819A20121022002F068
:1009C000A7F86068FFF760FD034617A2202168467C
:1009D00003F07AFB6A460521022002F099F814A27E
:1009E0000121032002F094F8A4F12C00C068FFF765
:1009F0004BFD034610A22021684603F065FB6A46C2
:100A00000721032002F084F808B010BD54656D7012
:100A10003A0000004000002025642E430000000042
:100A200048756D3A0000000025642525000000008F
:100A30004C696768743A000025644C7578000000C2
:100A400072B6FEE706490020C8610648016941F018
:100A500004010161016941F040010161704700003A
:100A60006009002000200240064A0021D1610649A9
:100A70000A6942F002020A614861086940F04000D8
:100A8000086170476009002000200240044B0022EA
:100A9000DA61044A136943F001031361018070476E
:100AA000600900200020024014480022C168CB06E3
:100AB000134904D5CA6942F00202CA611022C36810
:100AC0005B0705D5CB6943F00103CB6142F004021B
:100AD000C369DB0707D0CB6943F00403CB61C1696D
:100AE00021F00101C161A2F58071013901D0C2601C
:100AF0007047C16921F00101C161704700200240C7
:100B00006009002070B5054600F07EFD0646114CD8
:100B100009E0681C07D025B100F076FD801BA842D3
:100B200001D9032070BDE068C007F2D1E0688006FB
:100B300001D52020E060E068C00605D4E069C00768
:100B400002D1E068400703D5FFF7AEFF012070BD7A
:100B5000002070BD0020024010B50F490F4B4FF42C
:100B6000D272086898420DD10D48FFF71CFB0C4B60
:100B7000BDE810408433A3F12002A2F1600109A076
:100B800003F092BA11460648FFF734FBBDE8104067
:100B900010A003F089BA000000FC00083412A55A26
:100BA000BC0700205B466C6173685D20436F6E6616
:100BB0006967204C6F616465643A20535349443D32
:100BC00025732C205049443D25732C2049443D2554
:100BD000730D0A005B466C6173685D204E6F207672
:100BE000616C696420636F6E66696720666F756EFD
:100BF000642E0D0A00000000F0B585B00026044602
:100C00000546049600F0F2FB0096184E0120CDE94F
:100C1000026004A9684600F045FB48B100F096FB6D
:100C2000014613A003F040FA00F096FB05B0F0BDBA
:100C30001648206000244FF4D27700BF24F0030050
:100C400000232A58A119022000F090FB20B1214670
:100C50000FA003F029FA02E0241DBC42EED300F0FD
:100C60007BFB14A003F020FAE0E7000000FC000882
:100C70005B466C6173685D204572617365204572E7
:100C8000726F723A2025640D0A0000003412A55AD2
:100C90005B466C6173685D205772697465204572AC
:100CA000726F72206174206F6666736574202564AC
:100CB0000D0A00005B466C6173685D2057726974B1
:100CC0006520537563636573732E0D0A0000000081
:100CD00010B54FF48071034800F08CFC012800D05F
:100CE000002010BD000C014010B52021034800F089
:100CF00081FC08B1002010BD012010BD000C014096
:100D000010B5094A012802D0022803D009E04FF4A7
:100D1000805101E04FF40051104600F06BFC0128B7
:100D200000D0002010BD0000000C0140F8B50024E8
:100D3000009490F824202546012A12D0012280F840
:100D400024204A681F23072A0DD20668776B521E9B
:100D500002EB820293409F430B6893401F437763EB
:100D600019E00220F8BD06680D2A0AD2376BD21F9F
:100D700002EB820293409F430B6893401F4337630B
:100D800009E0F76A0D3A02EB820293409F430B6839
:100D900093401F43F7620A68072306680A2A0AD3AA
:100DA000F7680A3A02EB420293409F438B689340F4
:100DB0001F43F76008E0376902EB420293409F430C
:100DC0008B6893401F4337610A68102A01D0112AAB
:100DD00020D1124B02689A4217D193681B0219D492
:100DE000936843F4000393600968102912D10C49F9
:100DF0000C4A0968B1FBF2F101EB8101490000E006
:100E0000491E00910029FBD104E0816A41F02001D4
:100E10008162012480F824502046F8BD002401405E
:100E20005400002040420F000068C06C7047000072
:100E30002DE9F0414FF0000704003D467ED0A06A46
:100E4000002628B9E66284F82460204600F07EF887
:100E50002046FFF73BFCA16AC90600D420B1A06A76
:100E600040F01000A06269E0A16A21F4885141F0CD
:100E70000201A1626268E169237B0A4347EA4301F8
:100E80000A43A1684FF48077B94209D0012907D0FD
:100E90005FF0000194F814C0BCF1010F02D00AE029
:100EA0003946F7E7F3B1A36A43F02003A362E36A8C
:100EB00043F00103E3622368D3F804C02CF4694CC7
:100EC0004CEA010CC3F804C021688B68DFF870C0DD
:100ED00003EA0C0313438B60A168B9420BD00129CC
:100EE00009D00CE0DFF85CC0A3690CEB43330B4383
:100EF00043F40061DFE7218A0D05A5F5801521681F
:100F0000CB6A23F470032B43CB62216889680E4BB4
:100F10001940914208D1E662A16A21F0020141F034
:100F20000101A162BDE8F081A06A20F0020040F05A
:100F30001000A062E06A40F00100E0620120F1E7E9
:100F4000FDF7E1FF00E0FFFFFE0E1FFF00B585B0DB
:100F50000021009101910291039100680E4988429D
:100F600018D10E48816941F400718161816901F4F1
:100F700000710491816941F00401816180696946D1
:100F800000F0040004900120009003200190044828
:100F900000F040FA05B000BD0024014000100240FE
:100FA000000801402DE9F84300270D46044600974C
:100FB00000F02AFB804620688168C90508D5A06A30
:100FC00040F02000A06284F824700120BDE8F8837E
:100FD0004168C90503D4C06A10F4700F2AD00220FA
:100FE00000F0B0FB3B490968B1FBF0F620680369EB
:100FF00039490B424FEA61014FEAA1121FD1C36880
:101000004FEA611C13EA0C0F19D103690B4225D179
:10101000C068104222D1142023E0681C0AD02DB1F0
:1010200000F0F2FAA0EB0800A84203D9206800689B
:10103000800725D5206800688007EED52DE003697C
:101040000B4202D1C168114206D0026923490A420B
:1010500006D1C068084203D1542002E0292000E0F4
:10106000FC204643009816E0681C11D02DB100F01A
:10107000CBFAA0EB0800A8420AD90098B04207D2E8
:10108000A06A40F00400A06284F8247003209DE769
:101090000098401C0090B042E6D321686FF0120027
:1010A0000860A06A40F40070A06220688068C0F305
:1010B000424007280CD1207B50B9A06A20F48070F0
:1010C000A062A06AC00403D4A06A40F00100A0623C
:1010D00000207BE7540000202449922449922400F8
:1010E00070B5044690F8240001280DD0012084F842
:1010F00024002046FFF716FB02004FF0000005D049
:1011000084F82400104670BD022070BDA16A40F230
:101110000123994341F48071A1621F4D23681F4947
:10112000AB4218D10E6816F4702F14D0A66A46F49C
:101130008016A6620E68760505D5A66A26F40056C6
:1011400046F48056A662A66AF6040AD5E66A26F038
:101150000606E66206E0A66A26F48016A6625E68C7
:10116000E9E7E06284F824006FF00200186020686C
:101170008368C3F34243072B05D1A84208D109680D
:1011800011F4702F04D0816841F480118160B9E7B7
:10119000816841F4A001F9E70028014004240140DE
:1011A00010B590F821100022022905D00421816396
:1011B00080F82020012010BD01680B6823F00E0389
:1011C0000B6001680B6823F001030B6090F840305E
:1011D000C46B012101FA03F3636080F8211080F8E9
:1011E0002020104610BD000010B590F821100024FA
:1011F000022903D00421816301243DE001680A68CB
:1012000022F00E020A6001680A6822F001020A60F8
:101210001A4A0168914201D1012121E0174A143292
:10122000914201D110211BE0144A2832914201D190
:10123000891515E0114A3C32914201D189140FE021
:101240000E4A5032914202D14FF4803108E00B4AED
:101250006432914202D14FF4801101E04FF080716D
:10126000064A083A5160012180F82110002180F8D7
:101270002010416B01B18847204610BD0800024094
:1012800070B5044600F0C0F90546601C02D0044861
:101290000078044400F0B8F9401BA042FAD370BDB6
:1012A000480000202DE9F047054626480F46012654
:1012B000017E01290FD00121814601762868DFF8DF
:1012C00088804CF25034022808D0A2462046FFF70E
:1012D00019FCA8B131E00220BDE8F0872046FFF7F5
:1012E00011FC08BB0120FFF7ADFB2046FFF70AFC0D
:1012F000D8F81010064621F00401C8F810101CE0C0
:101300004FF0FF303860AC6811E02046FFF7ACFBCF
:101310005046FFF7F7FBD8F81010060021F0020145
:10132000C8F8101001D03C6007E004F58064D5E9EE
:10133000020100EB8120A042E7D8002189F81810B3
:101340003046C9E760090020002002400148C0691A
:1013500070470000600900200348016941F08001E6
:101360000161002070470000002002402DE9F05F7D
:1013700007461C4888460024017E15461E46012962
:1013800009D00121814601764CF2503A5046FFF7D0
:10139000B9FB18B122E00220BDE8F09F012F02D076
:1013A000022F00D00427D346DFF83CA022012846B4
:1013B0003146FEF7E8FE81B208EB4400FFF766FB1A
:1013C0005846FFF79FFBDAF8102022F00102CAF816
:1013D000102018B9641CE4B2BC42E7D3002289F89B
:1013E0001820D9E7600900200020024006490020AB
:1013F0000A69120607D5054A4A60054A4A60096922
:10140000090600D5012070470020024023016745EE
:10141000AB89EFCD2DE9F84FDFF8B8910024A9F1A1
:10142000040B23460F2709F1040AABF1040EC9E0AF
:101430000125A5402A40AA427DD1674ED1F804C0BB
:10144000ACEB0608B44532D014DCBCF1030F3AD043
:1014500009DCBCF1000F2AD0BCF1010F1CD0BCF19B
:10146000020F31D11DE0BCF1110F17D0BCF1120FEA
:101470002AD119E0B8F5881F19D006DCB8F5803FED
:1014800015D0B8F5801F1FD111E0B8F5001F0ED0A0
:10149000B8F5041F18D10AE0CB6815E0CB681B1D16
:1014A00012E0CB6808330FE0CB680C330CE08B689C
:1014B0002BB1012B4FF0080303D0456104E0042356
:1014C00002E0056100E00023FF2A01D8064601E0A2
:1014D00000F104064FEA840501D9A5F12005D6F8EC
:1014E000008007FA05FC28EA0C0803FA05F548EA2B
:1014F0000508C6F800804D68ED0062D5374DAE692D
:1015000046F00106AE61AD6924F0030605F0010561
:101510000095334D06EB050CDCF80850A607360F96
:1015200007FA06F825EA0805DFF8B880404503D138
:101530004FF0000817E044E0DFF8AC80404502D1EE
:101540004FF001080FE0DFF8A480404502D14FF0D2
:10155000020808E0DFF89880404502D14FF0030808
:1015600001E04FF0040808FA06F848EA0508CCF84C
:1015700008804D68D9F80060ED024D4601D516434C
:1015800000E096432E604D68DAF80060AD025546E3
:1015900001D5164300E096432E604D68DBF80060ED
:1015A000AD035D4601D5164300E096432E604D68BD
:1015B000DEF80060ED03754601D5164300E0964362
:1015C0002E60641C0D682A46E5407FF431AFBDE80B
:1015D000F88F0000080401400000111000100240C4
:1015E0000000014000080140000C014000100140D3
:1015F000001401408068084000D0012070470AB103
:10160000016170470904FBE70148806870470000EA
:1016100048000020024881680278114481607047C8
:1016200048000020074810B5016841F01001016032
:10163000032000F075F80F2000F006F800F024F801
:10164000002010BD0020024070B50D4D04464FF43F
:101650007A712878B1FBF0F00A490968B1FBF0F023
:1016600000F0AAFB48B9102C07D200222146501ED8
:1016700000F036F800206C6070BD012070BD0000E5
:1016800048000020540000200C4808B5816941F052
:1016900001018161816901F001010091C16941F09D
:1016A0008051C161C06900F08050009004484168D9
:1016B00021F0E06141F00071416008BD001002407E
:1016C00000000140002809DB00F01F0201219140C9
:1016D0004009800000F1E020C0F8001170470000D0
:1016E000F0B40E4B1B680C46C3F30223C3F107058D
:1016F000042D00D90425191D072901D2002300E07B
:10170000DB1E012606FA05F1491E214099409E4044
:10171000761E16403143F0BC02F002BD0CED00E035
:10172000064900F0070208684FF6FF03184040EA38
:101730000220034A10430860704700000CED00E0EF
:101740000000FA0510B501460020234C012922D0E3
:10175000022939D010291DD161682268D20119D51A
:101760001E48C1F38342C903805C0AD561681B4AE5
:10177000C1F34041921E515C194AB2FBF1F148435A
:1017800001E0184948436168490203D4400003213D
:10179000B0FBF1F010BD226AC2F30121012903D18F
:1017A000920701D5C80310BD022905D1626A9207CC
:1017B00002D549F6404010BD0329FCD121688903B8
:1017C000F9D54FF2244010BD00F030F96168C1F343
:1017D0008131491C4900DBE7001002408C4E0008B3
:1017E00000127A0000093D002DE9F8430546007813
:1017F000354CC00754D0E0690026C00008D4E06929
:1018000040F08050E061E069012600F080500090D7
:101810002E480168C90512D40168804641F48071E0
:101820000160FFF7F1FE074605E000BFFFF7ECFEA1
:10183000C01B642823D8D8F80000C005F6D5206A5C
:1018400010F4407021D0A98801F4407181421CD06D
:10185000206A1F49012220F440700A6000220A60B9
:101860002062C00711D0FFF7CFFE074641F288384B
:1018700008E000BFFFF7C8FEC11B414502D90320A5
:10188000BDE8F883206A8007F4D5206A696820F4EF
:101890004070084320621EB1E06920F08050E06192
:1018A0002878800705D56068A96820F4404008437F
:1018B00060602878C00605D56068E96820F480007B
:1018C000084360600020DBE7001002400070004029
:1018D000400442422DE9F0470F46050061D0434ED7
:1018E000306800F00700B84209D2306820F00700E5
:1018F00038433060306800F00700B84251D12868A2
:101900003B4C810712D5400703D5606840F4E06086
:1019100060602878000703D5606840F4605060601C
:101920006068A96820F0F000084360602878C0076C
:1019300028D06868012810D02168022810D08907B3
:1019400000292EDA616821F0030101436160FFF78D
:101950005BFE804641F288390DE021688903EFE79C
:101960008901EDE7FFF750FEA0EB0801494502D9D8
:101970000320BDE8F0876068696800F00C00B0EBF8
:10198000810FEFD1306800F00700B8420BD9306802
:1019900020F0070038433060306800F00700B8429C
:1019A00001D00120E5E72878400705D56068E9689F
:1019B00020F4E060084360602878000706D560687E
:1019C000296920F4605040EAC100606000F03EF8F0
:1019D0006168084AC1F30311515CC84006490860B8
:1019E00006480068FFF730FE0020C2E700200240F2
:1019F000001002409C4E0008540000204C000020C3
:101A00000148006870470000540000200448054960
:101A100000684968044AC1F30221515CC84070471C
:101A20005400002000100240AC4E00080448054954
:101A300000684968044AC1F3C221515CC84070473C
:101A40005400002000100240AC4E00080E4A5168BD
:101A50000E4801F00C03042B11D0082B0FD10C48B9
:101A6000C1F38343C903C05C0AD55168084AC1F376
:101A70004041921E515C054A5043B0FBF1F0704763
:101A800004494843704700000010024000127A00E9
:101A90007A4E000800093D002DE9F84F040070D08F
:101AA0002078C04DC00749D06868C0F38100012884
:101AB00007D06868C0F38100022809D16868C003B4
:101AC00006D52868800339D560680028E7D035E05E
:101AD0006068B0F5803F0BD010B1B0F5A02F11D0E9
:101AE000286820F480302860286820F4802002E0F4
:101AF000286840F480302860606890B1FFF784FD6A
:101B000006460AE0286840F480202860F0E700BF1D
:101B1000FFF77AFD801B642873D828688003F7D507
:101B20000CE0FFF771FD064605E000BFFFF76CFD16
:101B3000801B6428F0D828688003F7D420789A4E58
:101B400080074FF001094FF0000839D5686810F0A0
:101B50000C0F07D06868C0F38100022809D16868BB
:101B6000C00306D42868800714D52069012808D14D
:101B700010E02069B0B1C6F80090FFF745FD0746B8
:101B800005E00AE1FFF740FDC01B0228C4D8286821
:101B90008007F7D52868616920F0F80040EAC100A5
:101BA00028600DE0C6F80080FFF72EFD074604E030
:101BB000FFF72AFDC01B022823D828688007F7D426
:101BC000207800072CD57948A169D9B1C0F80090D8
:101BD000FFF71AFD074604E0FFF716FDC01B0228B9
:101BE0000FD8686A8007F7D571484FF4FA5100683A
:101BF000B0FBF1F0009000BF0098411E0091FAD2B6
:101C00000EE080E0C0F80080FFF7FEFC074604E02D
:101C1000FFF7FAFCC01B022875D8686A8007F7D462
:101C20002078400760D5E8690027C00008D4E8693B
:101C300040F08050E861E869012700F08050009092
:101C40005C480168C90513D40168834641F480717A
:101C50000160FFF7D9FC824606E000BFFFF7D4FC25
:101C6000A0EB0A0064284ED8DBF80000C005F5D5CB
:101C7000E06801280AD008B1052813D0286A20F0AE
:101C800001002862286A20F0040002E0286A40F07F
:101C900001002862E06841F2883B98B1FFF7B4FC8C
:101CA00082460BE0286A40F004002862EEE700BF9D
:101CB000FFF7AAFCA0EB0A0159455AD8286A800709
:101CC000F6D50CE0FFF7A0FC824605E0FFF79CFC90
:101CD000A0EB0A0159454CD8286A8007F6D41FB1F9
:101CE000E86920F08050E861E06988B36968C1F371
:101CF0008101022944D00228C6F8608004D0FFF791
:101D000083FC044638E034E0FFF77EFC074604E03D
:101D1000FFF77AFCC01B02282BD828688001F7D473
:101D2000206AB0F5803F05D16868A16820F40030D2
:101D300008436860D4E908010843696821F4741114
:101D400008436860C6F86090FFF75EFC044606E052
:101D500025E000BFFFF758FC001B022809D82868BF
:101D60008001F7D51BE000BFFFF74EFC001B0228E7
:101D700002D90320BDE8F88F28688001F4D40EE072
:101D80000128F7D06868226A00F48031914204D1BA
:101D9000616A00F47010884201D00120EAE7002057
:101DA000E8E7000000100240000042428004424286
:101DB000540000200070004010B5401EB0F1807F3C
:101DC00001D3012010BD4FF0E02460610F216017A6
:101DD00002F0A6F90020A06107202061002010BDBC
:101DE0007047704770B590F83C20012A26D0012436
:101DF00080F83C40022280F83D2003685A689D68C4
:101E000022F070060A6832435A600D4B02689A420B
:101E100008D0B2F1804F05D00A4B9A4202D00A4B4B
:101E20009A4204D1496825F080031943916080F8F3
:101E30003D40002180F83C10084670BD022070BD76
:101E4000002C0140000400400008004010B50400D0
:101E500003D094F83D0010B107E0012010BD002030
:101E600084F83C00204600F01FF8022084F83D0072
:101E7000211D206801F09CFC012084F8460084F8B4
:101E80003E0084F83F0084F8400084F8410084F864
:101E9000420084F8430084F8440084F8450084F844
:101EA0003D00002010BD000008B500680B498842C5
:101EB00012D10B48C16941F00201C161C069002221
:101EC00000F00200009011461D20FFF709FCBDE85C
:101ED00008401D20FFF7F6BB08BD000000040040CD
:101EE0000010024070B5044690F83C00002501281F
:101EF00017D0012684F83C60022084F83D00206859
:101F0000826822F0770222F47F42826008685028BB
:101F100038D00DDC20284FD005DC90B3102811D12B
:101F20004AE0022070BD302846D040280AD13BE06C
:101F300060282FD070280DD0B0F5805F03D0B0F5A9
:101F4000005F12D0012584F83D60002084F83C0039
:101F5000284670BDCB68D1E90121206801F064FCFE
:101F60002068816841F0770109E0CB68D1E901215F
:101F7000206801F059FC2068816841F4804181604B
:101F8000E1E719E0CA684968206801F05FFC502168
:101F9000206806E0CA684968206801F068FC602192
:101FA000206801F04BFCCEE7CA684968206801F060
:101FB0004DFC40212068F4E7226801461046F0E716
:101FC00070472DE9F04104460068C66805694FF086
:101FD0000007A90713D5B10711D5F91E016101202A
:101FE0002077206880698007204602D0FFF7E8FF4D
:101FF00004E000F07EF8204600F07CF827776807C0
:1020000016D5700714D521686FF00400086102200E
:1020100020772068806910F4407F204602D0FFF7C7
:10202000CFFF04E000F065F8204600F063F8277762
:10203000280715D5300713D521686FF0080008610F
:10204000042020772068C0698007204602D0FFF76F
:10205000B7FF04E000F04DF8204600F04BF827777A
:10206000E80616D5F00614D521686FF01000086157
:10207000082020772068C06910F4407F204602D0F5
:10208000FFF79EFF04E000F034F8204600F032F83D
:102090002777E80708D0F00706D021686FF0010025
:1020A0000861204600F027F8280608D5300606D536
:1020B00021686FF0800008612046FFF791FE6806F6
:1020C00008D5700606D521686FF0400008612046EB
:1020D00000F012F8A8060AD5B00608D521686FF0FE
:1020E000200008612046BDE8F041FFF77ABEBDE858
:1020F000F081704770477047704770477047000025
:10210000F8B5016804460868CA684B6910F00F0FFB
:102110004FF0000559D003F0010602F490773743E1
:1021200065D0C10705D0D10503D5616C41F001012F
:102130006164410705D5D90703D0616C41F0020104
:102140006164810705D5D90703D0616C41F00401B2
:102150006164010707D502F02001314303D0616CAF
:1021600041F008016164616C00293AD0800604D511
:10217000900602D5204601F0BBFB20684069616CE7
:10218000C0F38010090700D460B3204601F089FB3A
:1021900020684069400621D52068143050E8001FAF
:1021A00021F0400140E80012002AF5D1E06BA8B10F
:1021B0006D494163E06BFFF717F8002811D0E06B21
:1021C000416B01B0BDE8F040084783060FD5930688
:1021D0000DD52046BDE8F84001F08ABB2046FFF748
:1021E0008DFFF8BD2046FFF789FF6564F8BD266BBB
:1021F0002023012E7CD1C6067AD5D60678D508686C
:102200004868009048694FF00206400640D5E16BEF
:10221000086840680004000CE8D0A28D8242E5D92D
:10222000E085886920282DD020680C3050E8001FF8
:1022300021F4807140E80012002AF5D120681430A2
:1022400050E8001F21F0010140E80012002AF5D1FA
:102250002068143050E8001F21F0400140E80012CF
:10226000002AF5D184F84230256320680C3050E80C
:10227000001F21F0100140E80012002AF5D1E06BA8
:10228000FEF78EFF6663A08DE18D401A81B22AE0D1
:10229000A08DE18D401A81B2E08D0028A6D00029E2
:1022A000A4D022680C3252E8000F20F4907042E86B
:1022B0000007002FF5D12068143050E8002F22F0DD
:1022C000010240E80027002FF5D184F84230256351
:1022D00020680C3050E8002F22F0100240E8002364
:1022E000002BF5D166632046FFF707FFF8BDFFE737
:1022F00005062BD5150629D594F841002128F5D1DE
:10230000A068B0F5805F01D12069B0B1206A411C9E
:102310002162216800784860E08C401E0004000CB7
:10232000E084E3D12068C16821F08001C1602068A9
:10233000C16841F04001C160D8E7206A0088C0F35D
:1023400008004860206A801C2062E5E74006CDD581
:102350005006CBD5CA68204622F04002CA6084F8F5
:10236000413000F0FAF8C1E79338000870B5040076
:1023700004D094F84100002510B106E0012070BDA2
:1023800084F84050204600F023F8242084F84100CF
:102390002068C16821F40051C160204601F00AFBA9
:1023A0002068016921F4904101612068416921F0B0
:1023B0002A0141612068C16841F40051C16065642F
:1023C000202084F8410084F842006563002070BD3D
:1023D00070B586B0002400940194029403942B4EAF
:1023E00003682B49022003222A4DB34221D18B6975
:1023F00043F480438B618B6903F4804304938B69BE
:1024000043F004038B618969039201F00401049194
:102410000102CDE9001069462846FEF7FBFF2815AA
:10242000CDE90004694628460294FEF7F3FF06B0A2
:1024300070BD194EB342FAD1CB6943F40033CB617E
:10244000CB6903F4003304938B6943F004038B617D
:102450008969039201F0040104910421CDE900107F
:1024600069462846FEF7D6FF0820CDE900046946F4
:1024700028460294FEF7CEFF002211462620FFF7E1
:102480002FF92620FFF71EF9D1E7000000380140A0
:1024900000100240000801400044004090F8423023
:1024A000202B01D00220704721B11AB10023036311
:1024B00001F0DCBA0120704770472DE9F84304466B
:1024C00090F84100984616460D46202802D002207A
:1024D000BDE8F88385B17EB100206064212084F8D6
:1024E0004100FFF791F8A6848146E684A068202782
:1024F000B0F5805F02D003E00120E9E7206910B168
:102500002E4600250EE000260CE08021204601F03A
:10251000C8FAA8B9C6B116F8010B21684860E08C6A
:10252000401EE084E08C4B464FF00002CDF8008066
:102530000028EAD14FF04001204601F0B2FA40B144
:1025400084F841700320C3E735F8020BC0F308009C
:10255000E3E784F841700020BAE77047FEE770B502
:102560000D460646FFF746F8012808D11420FEF76D
:1025700087FE29463046FFF73DF8012801D00020AC
:1025800070BD00240EE00A20FEF77AFE641CA4B29F
:10259000C82C07D929463046FFF72CF80128F9D076
:1025A000022070BD29463046FFF724F80128EAD002
:1025B000012070BD012220210148FFF720B8000052
:1025C000000C0140002220210148FFF718B800004C
:1025D000000C01402DE9F041002580462C462E4696
:1025E0002F46404600F01FF845197C410220FEF7B7
:1025F00047FE761C0A2EF4DB0A22002328462146D9
:10260000FDF790FDBDE8F08110B5FFF7E3FF40F660
:10261000FF71B0F5805F00D3084664225043B0FBE1
:10262000F1F0C0B210BD10B50446FEF759FD0A2105
:102630002046FEF7B7FC08B1002010BD2046BDE8DB
:102640001040FEF7F1BB00003EB500241148009495
:10265000019402940E49846001600473047501259D
:1026600005614FF460214460C161FEF7E1FB08B1F0
:10267000FEF7E6F905200094CDE9015069460548CA
:10268000FEF754FB002801D0FEF7DAF93EBD00004A
:1026900000240140600600202DE9F04385B00024AD
:1026A00021480094019402940394816941F020012F
:1026B0008161816901F020010491816941F0040187
:1026C0008161816901F004010491816941F008018F
:1026D00081618069DFF8549000F008004BF2201708
:1026E0000490002239464846FEF789FF0225DFF8AC
:1026F0004080CDE900540126694640460296FEF727
:1027000089FEE0208DE8310069464046FEF782FEF2
:10271000CDE9007669464846CDE90245FEF77AFEE6
:1027200005B0BDE8F083000000100240000C01403D
:102730000008014010B586B00024174800940194A9
:102740000294039404941349059401604721C0E95D
:10275000011442F20F71C0E903148461FFF776FBA4
:1027600008B1FEF76DF94FF48050009069460A48B1
:10277000FFF7B8FB08B1FEF763F9049404A9064813
:102780000594FFF72FFB002801D0FEF759F906B09A
:1027900010BD000000040040E40600200C4810B505
:1027A0000A4901604FF4E1314160002181600C224F
:1027B000C160C0E904128161C161FFF7D7FD002843
:1027C00003D0BDE81040FEF73BB910BD0038014012
:1027D0002C0700200C4810B50A4901604FF4E13184
:1027E0004160002181600C22C160C0E90412816156
:1027F000C161FFF7BBFD002803D0BDE81040FEF724
:102800001FB910BD0044004074070020FEE7FEE73A
:1028100070B500240021204600F0EAF800250020D1
:1028200000F09AF96D1CEDB2802DF8D3641CE4B26F
:10283000082CEFD370BD0000114810B5816986B037
:1028400041F00801816180690E4C00F0080004909D
:10285000C0200090112001900120029003200390DD
:1028600069462046FEF7D6FD012240212046FEF7AC
:10287000C6FE012280212046FEF7C1FE06B010BD33
:1028800000100240000C01402DE9F0410024144DDD
:102890000746802626FA04F0384201D0012200E0E3
:1028A000002280212846FEF7AAFE01224021284668
:1028B000FEF7A5FE002240212846FEF7A0FE641C7C
:1028C000E4B2082CE6D3012240212846FEF797FE09
:1028D0002846BDE8F04100224021FEF790BE0000EE
:1028E000000C014010B50B4C012280212046FEF760
:1028F00086FE012240212046FEF781FE0022802133
:102900002046FEF77CFE20460022BDE81040402114
:10291000FEF775BE000C014010B5094C0022802165
:102920002046FEF76CFE012240212046FEF767FE9E
:1029300020460122BDE810408021FEF760BE000065
:10294000000C014008B50020009028480099491C5F
:1029500000918142FAD3FFF76FFFAE2000F0EBF851
:10296000D52000F0E8F8802000F0E5F8A82000F07D
:10297000E2F83F2000F0DFF8D32000F0DCF8002080
:1029800000F0D9F8402000F0D6F8A12000F0D3F8EC
:10299000C82000F0D0F8DA2000F0CDF8122000F0C6
:1029A000CAF8812000F0C7F8CF2000F0C4F8D92081
:1029B00000F0C1F8F12000F0BEF8DB2000F0BBF819
:1029C000302000F0B8F8A42000F0B5F8A62000F000
:1029D000B2F88D2000F0AFF8142000F0ACF8AF2072
:1029E00000F0A9F8BDE80840FFF712BF40420F0011
:1029F00010B50C4640F0B00000F09DF8102040EA01
:102A0000141000F098F804F00F00BDE8104000F03A
:102A100092B800002DE9F05F1746884683460024EF
:102A20004FF0010A002604F0070135463046E2085F
:102A3000C1F107014FEA0A0302EB400C17F80CC082
:102A40002CFA01FC5FEACC7C05D003FA00FC4CEACE
:102A5000060C0CF0FF06401CC0B20828ECD308207E
:102A600002EB4003FB5CCB40DB0705D0A0F1080C78
:102A70000AFA0CF32B43DDB2401CC0B21028EFD38E
:102A80000BEB040909F0FF014FEAD800FFF7B0FF94
:102A9000304600F061F809F0FF010AEBD800FFF7BB
:102AA000A7FF284600F058F8641CE4B2102CB9D3F4
:102AB000BDE8F09F2DE9F0410746CE004000203AE6
:102AC000083E801ED5B24FF0FF38F1B2C0B2FFF71A
:102AD0008FFF0E48002400EB0515285D00F03CF840
:102AE000641CE4B2082CF8D308EB4700F1B2C0B282
:102AF000FFF77EFF00242819007A00F02DF8641CEF
:102B0000E4B2082CF7D3BDE8F08100006848000863
:102B10002DE9F04115460E460746002406E030191F
:102B2000C1B23846FFF7C6FF641CE4B22A5D002A32
:102B3000F5D1BDE8F08110B50446FFF7D3FE78204B
:102B4000FFF7A2FE0020FFF79FFE2046FFF79CFE46
:102B5000BDE81040FFF7E0BE10B50446FFF7C2FE27
:102B60007820FFF791FE4020FFF78EFE2046FFF70A
:102B70008BFEBDE81040FFF7CFBE000010B502216C
:102B80000348FEF737FD012800D0002010BD0000EB
:102B9000000801402DE9F0410D462DA1FDF735FB60
:102BA000002830D03A21FDF74EFB00282BD02C21F5
:102BB000401CFDF748FB002825D0461C40784FF00C
:102BC0000008222802D085F800801BE0761C222114
:102BD0003046FDF738FB040011D0A01B87B2402F10
:102BE00000D33F273A4631462846FDF720FB05F83B
:102BF00007806178601C46462C2906D002E018A0A8
:102C000001F052FA0020BDE8F0812C21401CFDF7B4
:102C10001AFB0028F7D0401C04460D21FDF713FBDA
:102C200018B92046FDF719FB2044001B87B2FF2F7F
:102C300000D9FF273A46214605F14000FDF7F7FA93
:102C4000E81980F8406085F840610120DBE700006A
:102C50002B4D515454535542524543563A000000AF
:102C60003F3F3F0A000000007047000030B50546B6
:102C70000146E9B041A001F017FA202150A8FDF764
:102C8000B9FA402140A8FDF7B5FA202158A8FDF770
:102C9000B1FA202160A8FDF7ADFA4FF48074214607
:102CA0006846FDF7A7FA202350AA3AA1284601F06A
:102CB0007FFB402340AA39A1284601F079FB20235D
:102CC00058AA37A1284601F073FB202360AA35A13A
:102CD000284601F06DFB23466A4633A1284601F0E1
:102CE00067FB50A8FDF7B9FA002845D040A8FDF7CA
:102CF000B4FA002840D02DA001F0D6F94FF4D271DB
:102D00003048FDF777FA2F4850A9001DFDF7BAFAB1
:102D10002C4840A92430FDF7B5FA2A4858A9643058
:102D2000FDF7B0FA274860A98430FDF7ABFA2548D3
:102D30006946A430FDF7A6FA2248FDF75DFFFFF7CC
:102D400067FD012120A20846FFF7E2FE22A2012131
:102D50000220FFF7DDFE4FF4FA60FEF791FABFF3B1
:102D60004F8F21480168214A01F4E061114301605D
:102D7000BFF34F8F00BFFDE769B030BD5B436F6E9F
:102D80006669675D2052656365697665643A2025EA
:102D9000730D0A00737369640000000070776400AB
:102DA00070696400696400006B6579005B436F6E55
:102DB0006669675D20536176696E672E2E2E0D0A57
:102DC00000000000BC070020436F6E666967205357
:102DD00061766564210000005265626F6F74696EF0
:102DE000672E2E2E000000000CED00E00400FA0516
:102DF0002DE9F041A8B004464649FDF735FA002810
:102E000070D14034A046214643A001F04DF949A1BC
:102E10004046FDF7FAF9060064D07D21FDF74AFA35
:102E200005005FD000272F7043A1304601F0F8FA6B
:102E3000424C43A1E061304601F0F2FA206242A127
:102E4000304601F0EDFA606241A1304601F0E8FA47
:102E5000A06241A1304601F0E3FA7D216061297052
:102E60000125002809DB01283FD027713D4A302188
:102E70000020FFF7CFFDFDF767FD20223A4920A88B
:102E8000FDF791F9202220A9404601F067FA206A57
:102E9000002807DB01282FD0FDF756FD33A000BF27
:102EA00001F002F9E069002803DB012828D0FFF7D0
:102EB00081FB606A002803DB012824D000F03EF982
:102EC000A06A002803DB012820D000F047F920ABDE
:102ED00029A28021684601F0F7F869463048FDF7DD
:102EE000D1F9257028B0BDE8F08125712D4A302137
:102EF0000020FFF78FFDC0E7FDF72EFD2AA0CFE7EA
:102F0000FFF760FBD5E700F021F9D9E700F02EF9D3
:102F1000DDE70000600500205B4F6E654E657420A4
:102F2000434D445D2052656365697665643A2025AA
:102F3000730D0A007B0000004C4544001400002083
:102F4000416C61726D00000052454C4159310000E6
:102F500052454C415932000073656375726974794A
:102F60000000000048480008584E0008626565707F
:102F7000206F66660D0A00007B226964223A2225D2
:102F800073222C22636F6465223A3230302C226D1A
:102F90007367223A2273756363657373227D000041
:102FA000600400202848000862656570206F6E0D7F
:102FB0000A0000002DE9F043384DADF5117D287869
:102FC000002860D03649AA884FF0000801F8028036
:102FD00085F800800F463C463CE032A12046FDF7D4
:102FE00014F906003AD0301B80B28146FF2801D97F
:102FF000FF208146024621466846FDF7D4F8444644
:103000000DF8098028A16846FDF7FFF878B140A9BE
:103010006846FFF7BFFD40B150AA40A926A001F0C5
:1030200043F840A8FFF7E4FE13E02EA006E035A128
:103030006846FDF7EAF820B1AC7034A001F034F82E
:1030400007E03CA16846FDF7E0F810B16846FFF7DD
:103050000DFEB41C14B120780028BED1BC4216D994
:103060002046FDF7FAF886B2701EB0F5FF7F0ED845
:10307000324621463846FDF796F8C6F50071B81974
:10308000FDF7B8F8AE800DF5117DBDE8F0830DF5C4
:10309000117DBDE8F043FDF767BC0000040000208F
:1030A000600000200D0A00002B4D5154545355422E
:1030B000524543563A0000004D515454206D6573FB
:1030C00073616765207061727365642073756363F3
:1030D00065737366756C6C793A202573203D3E20CC
:1030E00025730A004D515454206D657373616765F3
:1030F0002070617273696E67206661696C65640A2D
:1031000000000000434C4F53454400005B4D5154B8
:10311000545D20436F6E6E656374696F6E20636CDF
:103120006F736564206279207365727665722E0A0A
:10313000000000002B4950440000000000224FF422
:1031400080510148FEF75BBA000C014001221103D7
:103150000148FEF754BA0000000C014000224FF471
:1031600000510148FEF74BBA000C01400122510307
:103170000148FEF744BA0000000C014030B585B0AC
:10318000002413480094019402940394816941F04F
:103190000801816180690F4D00F00800049022460B
:1031A0004FF480512846FEF72AFA00226914284677
:1031B000FEF725FA4FF4405000900120CDE90104BC
:1031C0000220039069462846FEF724F905B030BD79
:1031D00000100240000C014010B5104C302020704F
:1031E000A220607000F016FA882000F0DBF900F0F1
:1031F00065FA58B9207800F0D5F900F05FFA28B9DF
:10320000607800F0CFF900F059FA18B100F02CFA0C
:10321000012010BD00F028FA002010BD0A00002097
:1032200070B5324C24200D4620700020607000F0F4
:10323000F1F9882000F0B6F900F040FAC0B9207822
:1032400000F0B0F900F03AFA90B9607800F0AAF90D
:1032500000F034FA60B900F007FA1420FEF710F815
:1032600000F0D8F9892000F09DF900F027FA18B194
:1032700000F0FAF9012070BD012000F05BF91B4C51
:10328000A41C2070012000F055F96070012000F0AE
:1032900051F9A070012000F04DF9E070012000F01C
:1032A00049F92071002000F045F9607100F0DCF967
:1032B0002088B4F8031040BA4CBAFDF7E0F80C4986
:1032C000FDF76DF80B4E3146FDF79BF80A49FDF707
:1032D0000EF828602046FDF7D2F80849FDF75FF8A0
:1032E0003146FDF78EF86860002070BD0A000020AE
:1032F00000002F4300FF7F47000034C20000C84297
:10330000704700002DE9F0478AB040494048FFF778
:1033100087FFDFF8F890002518B1C9F80050C9F808
:1033200004503A493A482039FDF754FA374C2C3CBE
:1033300000B1E560FFF722FC60703648FFF764F9E2
:10334000FDF79DF82061FDF7C3FCA070FDF7CCFCF4
:10335000E0700220FDF7D4FC08B12FA700E030A7F1
:103360000120FDF7CDFC08B12BA600E02CA64FF400
:1033700000412D48FEF73EF9012814D028A5A046AB
:103380002069FDF781F882464C46D9F80400FDF724
:103390007BF881462068FDF777F8034698F804002B
:1033A00018B11DA002E01CA5E9E71DA0CDE907703A
:1033B000CDE9055698F80110404609B116A200E083
:1033C00017A2C4780CB114A400E015A498F8020068
:1033D00008B111A000E012A0CDF80090CDE903A241
:1033E000CDE90104114A4FF40071114800F06CFE60
:1033F0000F49002201F5207000F0C2FC0AB00C4910
:10340000BDE8F0470BA000F04FBE000040000020D8
:1034100090060020600600207472756500000000B0
:1034200066616C7365000000000C01403C4F0008B1
:10343000600200205061796C6F61643A2025730D41
:103440000A00000010B5124C002240212046FEF771
:10345000D6F8206820F070402060206840F040508E
:103460002060002280212046FEF7C9F8022000F0EB
:1034700067FF012240212046FEF7C1F8022000F03C
:103480005FFF20460022BDE810404021FEF7B7B89C
:10349000000C0140114810B5816986B041F0080167
:1034A000816180690E4C00F008000490C0200090FB
:1034B00011200190012002900320039069462046CC
:1034C000FDF7A8FF012240212046FEF798F80122CF
:1034D00080212046FEF793F806B010BD0010024090
:1034E000000C014010B5124C002240212046FEF78E
:1034F00086F8206820F070402060206840F040503E
:103500002060012280212046FEF779F8022000F099
:1035100017FF012240212046FEF771F8022000F03B
:103520000FFF20460022BDE810404021FEF767B89B
:10353000000C01402DE9F041194C07460025206898
:1035400020F070402060206840F00040206072B69B
:103550002E46002240212046FEF751F8022000F0BE
:10356000EFFE012240212046FEF749F86806050ECD
:1035700080212046FEF73EF808B16D1CEDB2012017
:1035800000F0DEFE761CF6B2082EE2D362B627B15A
:10359000FFF758FF2846BDE8F081FFF7A3FFF9E7E2
:1035A000000C014070B51A4E05463046316821F0D6
:1035B00070413160316841F040513160002240215A
:1035C000FEF71DF872B60024280601D5012200E09E
:1035D000002280213046FEF712F86806050E022010
:1035E00000F0AEFE012240213046FEF708F802202E
:1035F00000F0A6FE002240213046FEF700F802202F
:1036000000F09EFE641CE4B2082CDDD362B670BDEF
:10361000000C014010B572B6124C206820F07040CA
:103620002060206840F04050206001228021204628
:10363000FDF7E5FF012240212046FDF7E0FF0420D1
:1036400000F07EFE002280212046FDF7D8FF0420F6
:1036500000F076FE002240212046FDF7D0FF62B642
:1036600010BD0000000C014010B572B6124C20686D
:1036700020F070402060206840F040502060002220
:1036800040212046FDF7BBFF002280212046FDF7A8
:10369000B6FF042000F054FE012240212046FDF731
:1036A000AEFF012280212046FDF7A9FF042000F093
:1036B00047FE62B610BD0000000C014070B5184C0A
:1036C0000025206820F070402060206840F0004015
:1036D0002060012280212046FDF791FF012000F0AB
:1036E0002FFE012240212046FDF789FF012000F036
:1036F00027FE07E06D1CEDB2FA2D03D9FFF7B4FFEA
:10370000012070BD80212046FDF774FF0028F1D113
:10371000002240212046FDF772FF002070BD00000E
:10372000000C0140FDF776BF30B593B02821684604
:10373000FCF760FD14210AA8FCF75CFD00250120C0
:103740000F9510951195010412958DE823000490B2
:103750004FF4E010CDE90810022407946846FEF704
:103760009BF908B172B6FEE70AA90F2081E8310083
:103770004FF48060CDE90D0502210AA8FEF7AAF8F2
:1037800008B172B6FEE74FF4004011900F940FA8F5
:10379000FEF72AF8002801D072B6FEE713B030BD5C
:1037A000704700000148FEF70CBC0000E406002052
:1037B000F0B50268194B1A4C1A4D4FF080479842E9
:1037C00005D0B84203D0A04201D0A84203D122F0D4
:1037D00070064A683243984205D0B84203D0A042EE
:1037E00001D0A84203D122F44074CA6822434C6934
:1037F00022F08002224302608A68C2620A68826202
:10380000984201D109690163012141610169C90738
:1038100003D0016921F001010161F0BD002C0140DC
:10382000000400400008004010B5846842EA03220A
:1038300024F47F440A432243826010BD826822F050
:1038400070020A4342F007018160704710B5036AB5
:10385000046A24F001040462846924F0F00444EA58
:10386000021423F00A020A438461026210BD10B5FB
:10387000036A046A24F010040462846923F0A0033C
:1038800024F4704444EA023243EA01118261016285
:1038900010BD10B5406A0021C185C184FEF72EFC21
:1038A00010BD01680C3151E8002F22F4907241E8FC
:1038B0000023002BF5D10168143151E8002F22F0CC
:1038C000010241E80023002BF5D1016B012909D148
:1038D00001680C3151E8002F22F0100241E800236A
:1038E000002BF5D1202180F84210002101637047A0
:1038F00008B590F84210222901D0022008BD826844
:103900004FF480539A4201D1016921B1816A9A42F0
:103910001BD04AB10AE00268816A5268C2F3080209
:103920000A80816A891C08E0026972B102685268E3
:1039300002F07F020A70816A491C8162C18D491EB2
:103940000904090CC18503D01BE002685268F1E745
:103950000168CA6822F02002CA600168CA6822F4BD
:103960008072CA6001684A6922F001024A6120211E
:1039700080F8421000214163026B012A03D0FEF758
:103980009BFD002008BD016301680C3151E8002F48
:1039900022F0100241E80023002BF5D101680A68EB
:1039A000D20602D50A6849680091818DFEF7A5FB11
:1039B000E7E7000070B5044600680169E26821F499
:1039C0004051114301612169A068084361690843BE
:1039D0002168CA6841F20C639A430243CA602068B6
:1039E0004169A26921F44071114341611E49206877
:1039F000884202D1FEF71AF801E0FEF707F800EB63
:103A0000C00101EB0012606864218000B2FBF0F39A
:103A1000B3FBF1F36FF018067343B2FBF0F5B2FBA2
:103A2000F0F605EB8305322303EB0515B5FBF1F545
:103A3000B6FBF1F605F0F00505EB0615B2FBF0F666
:103A4000B2FBF0F0B0FBF1F06FF01802504306EB60
:103A5000800003EB0010B0FBF1F0216800F00F00D4
:103A60002844886070BD0000003801408162828572
:103A7000C28500214164222180F84210016921B1F0
:103A80000168CA6842F48072CA6001684A6942F0FB
:103A900001024A610068C16841F02001C160002054
:103AA00070472DE9F843984617460D460446089E90
:103AB00024E0701C22D0FDF7A7FDA0EB0800B04267
:103AC0001AD8CEB12068C168490717D5802D15D006
:103AD000402D13D00168C94309070FD401680025A0
:103AE000406800902046FFF7DCFE0820606484F800
:103AF00040500120BDE8F8830320FBE72068006800
:103B000035EA000004D00020B842D2D00020F1E70E
:103B10000120F9E7F8B5204C216808681F4E83069C
:103B20001F4A20484FF0010521D5CB689B061ED5C2
:103B30004968CBB20188B1F5FF7F11D801885718C9
:103B4000491C01803B700A2B0CD10188022909D342
:103B50000088104410F8020C0D2803D1357001E0E4
:103B6000FCF702FF21686FF0200008600EE00B6890
:103B7000DB060BD5CB68DB0608D50C68002349684B
:103B80000091018811B1008813543570BDE8F840E8
:103B90000148FEF7B5BA00007407002004000020B9
:103BA0006000002008000020FEE7000010B54FF480
:103BB0007A740223224609A10AA000F0B3F9204634
:103BC000FDF75EFBFCF7D0FE0A4909488988BDE88D
:103BD0001040014401220848FEF760BC7265616430
:103BE0007900000041542B5253540D0A000000008C
:103BF00060000020040000207407002070B5284CED
:103C0000C2B06078002848D00123C82225A126A090
:103C100000F088F94FF496752846FDF731FB2748E8
:103C20002749006888420ED1244884300646FCF7B4
:103C300014FB40B121483246A430A0F1400300906B
:103C400020A101A805E02AA000902CA32DA21DA16F
:103C500001A800F051FA01A92CA000F025FA0223D6
:103C60002A4610A101A800F05DF9002815D040F205
:103C70005B732FA233A101A800F03EFA01A938A07E
:103C800000F012FA02234FF47A7206A101A800F0A4
:103C900049F9002801D00120A07042B070BD000099
:103CA000040000204F4B000041542B4D515454440C
:103CB0004953434F4E4E3D300D0A0000BC070020D3
:103CC0003412A55A41542B4D515454555345524327
:103CD00046473D302C312C222573222C222573227D
:103CE0002C222573222C302C302C22220D0A00008D
:103CF000796F7572206B657900000000796F7572BD
:103D0000206964006C616230303100005B444542E0
:103D100055475D204D515454205573657220436FB3
:103D20006E66696720434D443A2025730000000009
:103D30006D717474732E6865636C6F7564732E6334
:103D40006F6D000041542B4D515454434F4E4E3D26
:103D5000302C222573222C25642C310D0A00000002
:103D60005B44454255475D204D51545420436F6E8E
:103D70006E65637420434D443A20257300000000B3
:103D800070B505460E48CCB0144680780E46002823
:103D900014D00846FCF761FA03462A4609A101A897
:103DA000009400F0A9F901A800F06EF94FF4FA7040
:103DB000FDF766FA304600F067F901204CB070BD9F
:103DC0000400002041542B4D51545450554252414F
:103DD000573D302C222573222C25642C25642C3051
:103DE0000D0A000000B50A4A99B092786AB10B46F4
:103DF000024608A1684600F07FF90223C8220BA101
:103E0000684600F08FF819B000BD0020FBE7000005
:103E10000400002041542B4D5154545355423D3021
:103E20002C222573222C25640D0A00004F4B000024
:103E300010B5A0B00223322221A122A000F072F816
:103E400000283AD0022332221DA120A000F06AF8F7
:103E5000002832D0012000F09BF800282DD001204E
:103E600000F096F8002828D01A4C1B492068884298
:103E700009D1201DFCF7F1F928B104F12403221D1A
:103E800016A1684603E01BA31EA214A1684600F019
:103E900033F9012341F2883209A1684600F042F863
:103EA00000280AD00223642205A119A000F03AF8E4
:103EB000002802D01A490120487020B010BD00002F
:103EC0004F4B000041540D0A0000000041544530A2
:103ED0000D0A0000BC0700203412A55A41542B43A0
:103EE000574A41503D222573222C222573220D0A68
:103EF00000000000776966692070617373776F72E4
:103F000064000000796F75722077696669000000AF
:103F100041542B4349504D55583D300D0A00000087
:103F2000040000202DE9FF5F0024984616468B46CA
:103F3000DFF85490A2460A2721E0009800F0A4F888
:103F4000002516E00A20FDF79BF999F80010484675
:103F500071B180F800A059460C48FCF756F928B119
:103F6000FCF702FD012004B0BDE8F09FFCF7FCFC6B
:103F70006D1CB6FBF7F0A842E4D8641CE4B24445DB
:103F8000DBD30020EFE700000400002060000020E9
:103F900000B589B0024606A1684600F0ADF80323DB
:103FA000642207A16846FFF7BDFF09B000BD00000D
:103FB00041542B43574D4F44453D25640D0A0000A5
:103FC0004F4B000030B50C460546A1B002234FF41C
:103FD000FA720AA10AA0FFF7A5FF00280CD0234619
:103FE0002A460BA1684600F087F802234FF4FA62D4
:103FF00002A16846FFF796FF21B030BD4F4B00008D
:1040000041542B43574D4F44453D320D0A000000AB
:1040100041542B43575341503D222573222C2225D6
:1040200073222C352C330D0A0000000010B5044615
:1040300090B002234FF4FA7209A10AA0FFF772FFB1
:1040400000280BD022460BA1684600F055F8022349
:104050004FF47A7202A16846FFF764FF10B010BDFA
:104060004F4B000041542B4349504D55583D310DA5
:104070000A00000041542B434950534552564552C3
:104080003D312C25640D0A0010B50446FCF7E5F817
:10409000214682B2BDE810404FF0FF330148FEF7E1
:1040A0000CBA0000740700200FB4054B10B503A92B
:1040B000044A029800F058F810BC5DF814FB0000A8
:1040C00009440008580000200FB41CB50246002027
:1040D00007AC00290BD0491ECDE90021054B6A46EB
:1040E0002146069800F040F8009A002111701CBC8F
:1040F0005DF814FB214300080FB4084B10B504A968
:1041000002AA039800F030F8044602A9002000F04B
:1041100012F9204610BC5DF814FB0000374300087C
:104120000907090E002804DB00F1E02080F80014E4
:10413000704700F00F0000F1E02080F8141D704778
:10414000004870475C00002002E008C8121F08C148
:10415000002AFAD170477047002001E001C1121F08
:10416000002AFBD1704700002DE9FF4F8BB09A4623
:104170000F460546002606E025280BD052460D992D
:1041800090476D1C761C28780028F5D10FB030467A
:10419000BDE8F08F0024A0460122604900E00443FE
:1041A00015F8013F203B02FA03F00842F7D12878C6
:1041B0002E2817D115F8010F44F004042A280ED038
:1041C0006FF02F022878A0F1300109290AD808EBF6
:1041D000880102EB410100EB01086D1CF2E757F882
:1041E000048B6D1C287869283ED006DC0028CDD0D1
:1041F00063280BD0642804D136E0732810D07528CA
:104200004BD052460D999047761C85E017F8040B69
:104210008DF8000000208DF80100E946012003E040
:1042200057F8049B4FF0FF3061074FF0000401D4B2
:104230000AE0641C44450DDA8442FADB19F80410E4
:104240000029F6D106E0641C8442FCDB19F8041056
:104250000029F8D1264404E019F8010B52460D99C3
:104260009047641EF8D257E001CF4FF00A0B0028A8
:1042700002DA40422D2102E0210504D52B218DF8E0
:104280002410012103E0E10705D02021F7E70DF11B
:10429000200908910CE00021F9E701CF4FF00A0B4B
:1042A000F9E75946FCF709F901F1300209F8012D47
:1042B0000028F6D1ADEB090000F1200B600701D416
:1042C0004FF00108D84502DDA8EB0B0000E000200C
:1042D0008046002406E009A85246005D0D999047EB
:1042E000641C761C08988442F5DB04E030205246BA
:1042F0000D999047761CB8F10001A8F10108F5DC92
:1043000005E019F8010B52460D999047761CBBF158
:104310000001ABF1010BF4DC6D1C34E7092801004E
:104320004A68002A06D00A68531C0B60107048685F
:10433000401E486070470A68531C0B60107070473D
:1043400010B50446FDF75CFB0349B0FBF1F1614396
:10435000491EFDD210BD000040420F0070B50D4651
:10436000144611A1FBF751FF00281CD03A21FBF79E
:104370006AFF002817D000BF10F8011F19B12029CB
:10438000FAD02229F8D00023641E02E0E954401C30
:104390005B1C017829B1222903D02C2901D0A3422A
:1043A000F4D30020E85470BD2269642200000000AC
:1043B000F0B5174689B004460A461D4610A1684666
:1043C000FFF79AFE69462046FBF71FFF040014D052
:1043D0006846FBF742FF061922213046FBF733FF00
:1043E00000280AD0841BAC4200D36C1E2246314602
:1043F0003846FBF71CFF0020385509B0F0BD00001F
:10440000222573223A22000013B54FF0FF33012218
:1044100069460248FEF751F800981CBD2C070020A1
:1044200030B58DB004460A4618A16846FFF764FE11
:1044300069462046FBF7E9FE04004FF0FF351CD02B
:104440006846FBF70AFF044400E0641C207820283B
:10445000FBD004220FA12046FBF71DFF80B10522EF
:104460000EA12046FBF717FF002807D02078A0F107
:104470003001092906D92D2804D028460DB030BDB9
:104480000120FBE72046FBF725FFF7E722257322F3
:104490003A000000747275650000000066616C737C
:1044A00065000000FDF7BEF8FFF73EF9FEF7F4F8EF
:1044B000FEF7CAF8FEF772F9FEF78CF9FEF73AF943
:1044C000FEF7E8FF6F48FEF787FE6E48FCF768F9D5
:1044D000FEF738FAFCF740FBFCF7A4F96AA0FFF7F7
:1044E000E3FD6F480068C16841F01001C160FFF74B
:1044F0005DFBFEF743FE4FF4FA60FCF7C1FE69A0D6
:10450000FFF7D2FDFFF794FC6C4DC8B16C48007802
:1045100020B16C4A30217020FEF77CFAFFF76EFB69
:1045200070B1287820B1684A30215A20FEF772FA1B
:1045300000216648FFF756FC4FF47A70FCF7A0FEA6
:1045400041F28837624E4FF00008624C4FF4004948
:10455000DFF884A1FEF72EFD207878B15F4960A0D6
:10456000FFF7A2FD5D49002201F5C070FFF708FCCE
:1045700084F8008080215948FBF73CFEFDF744F8A1
:10458000A168401AB84206D3FDF73EF8A060FEF7D6
:10459000B9FEFCF7FBF9287878B9FDF735F8A16981
:1045A000401A42F21071884207D9FDF72DF8A06138
:1045B00053A0FFF779FDFFF721FB20213046FDF7DF
:1045C000CEFF012802D0022811D009E0012020717D
:1045D000554A30210020FEF71DFA54A0FFF764FD74
:1045E00040213046FDF7BBFF012823D02EE054A028
:1045F000FFF75AFDFEF70CF9012157A20846FEF716
:1046000087FA58A201210220FEF782FA59A201215D
:104610000320FEF77DFA5BA15DA0FFF7D3FC41F616
:104620009070FFF703FD00BFFEF7C4FC0A20FCF703
:1046300027FEF9E784F80480594A30210020FEF76C
:10464000E9F9FCF781F957A0FFF72EFD2079A0B119
:1046500049465046FCF7CEFF012802D0FEF78EFAFD
:1046600058B1FEF78BFA834649465046FCF7C2FF25
:1046700001465A4650A0FFF717FD6420FCF700FEE4
:1046800068E70000900600203D3D3D2053544D3327
:104690003220696E6974206F6B203D3D3D0D0A002C
:1046A000740700203D3D3D205749464920696E6909
:1046B00074206F6B20203D3D3D0D0A000600002058
:1046C00005000020E84700080848000860050020B1
:1046D0000008014014000020000C0140600400208C
:1046E0005B4F6E654E6574205245504C595D2053AA
:1046F000656E64696E673A2025730D0A000000003C
:104700005B4D5154545D204C6F737420636F6E6E1B
:10471000656374696F6E2C207265747279696E6757
:104720002E2E2E0D0A0000002848000853656375E0
:1047300072697479204D6F6465204F4E0D0A000038
:10474000456E74657220436F6E666967204D6F64B5
:10475000652E2E2E0D0A0000436F6E666967204D90
:104760006F646500535349443A53544D33325F43A9
:104770006667000049503A3139322E3136382E34CE
:104780002E31000031323334353637380000000026
:1047900053544D33325F436F6E666967000000000B
:1047A000484800085365637572697479204D6F64D9
:1047B00065204F46460D0A005B44454255475D2043
:1047C000697342757A7A65725F4F6E20646F6F729B
:1047D0005F76616C75653A2025642C2048756D61A3
:1047E0006E3A2025640D0A00000000001FF83FFC0F
:1047F000FFFFF00FE7E70FF01FF81C38018003C040
:1048000003C001800000000007E00FF83FFC3FFEFE
:104810007FFE73CF71CFF3AFF2EF726F7FFE3FFE7B
:104820003FFC1FF807E00000000003C00C3020042C
:10483000200420042024244426C4238420041008B7
:104840001808042003C00000000000000000000061
:104850000000000000000000000000000000000058
:104860000000000000000000000000000000000048
:104870000000000000000000000000F80000000040
:10488000000000333000000000100C06100C060081
:10489000000000000000000040C07840C0784000E8
:1048A000043F04043F040400007088FC083000004A
:1048B000001820FF211E0000F008F000E0180000A2
:1048C00000211C031E211E0000F00888700000005B
:1048D0001E2123241927211010160E0000000000AD
:1048E0000000000000000000000000E018040200CA
:1048F000000000071820400000020418E00000003B
:104900000040201807000000404080F08040400038
:104910000202010F01020200000000F0000000008E
:104920000101011F01010100000000000000000062
:1049300080B07000000000000000000000000000D7
:104940000001010101010101000000000000000060
:1049500000303000000000000000000080601804FB
:10496000006018060100000000E010080810E000D8
:10497000000F102020100F00001010F800000000A1
:104980000020203F202000000070080808887000E8
:104990000030282422213000003008888848300068
:1049A0000018202020110E000000C02010F8000088
:1049B00000070424243F240000F808888808080021
:1049C0000019212020110E0000E010888818000036
:1049D000000F112020110E0000380808C838080008
:1049E0000000003F00000000007088080888700088
:1049F000001C222121221C0000E010080810E00009
:104A00000000312222110F00000000C0C000000091
:104A100000000030300000000000008000000000B6
:104A200000008060000000000000804020100800AE
:104A30000001020408102000404040404040400077
:104A40000404040404040400000810204080000052
:104A50000020100804020100007048080808F00057
:104A60000000003036010000C030C828E810E00027
:104A70000718272423140B000000C038E0000000B2
:104A8000203C23020227382008F88888887000001C
:104A9000203F202020110E00C030080808083800F0
:104AA000071820202010080008F808080810E00067
:104AB000203F202020100F0008F88888E808100008
:104AC000203F20202320180008F88888E8081000DC
:104AD000203F200003000000C03008080838000014
:104AE00007182020221E020008F808000008F80815
:104AF000203F210101213F20000808F8080800009C
:104B00000020203F2020000000000808F8080800CE
:104B1000C08080807F00000008F888C02818080046
:104B2000203F20012638200008F80800000000007F
:104B3000203F20202020300008F8F800F8F8080076
:104B4000203F003F003F200008F830C00008F80870
:104B5000203F200007183F00E01008080810E00080
:104B60000F10202020100F0008F808080808F00097
:104B7000203F210101010000E01008080810E000BA
:104B80000F18242438504F0008F88888888870004F
:104B9000203F2000030C30200070880808083800EF
:104BA0000038202121221C00180808F808081800E5
:104BB0000000203F2000000008F808000008F80866
:104BC000001F202020201F000878880000C8380817
:104BD000000007380E010000F80800F80008F8008F
:104BE000033C0700073C0300081868808068180829
:104BF00020302C03032C30200838C800C8380800A7
:104C00000000203F2000000010080808C8380800F5
:104C10002038262120201800000000FE0202020099
:104C20000000007F40404000000C30C00000000049
:104C3000000000010638C00000020202FE00000071
:104C4000004040407F000000000004020202040017
:104C50000000000000000000000000000000000054
:104C6000808080808080808000020204000000003C
:104C70000000000000000000000080808080000034
:104C80000019242222223F2008F800808000000022
:104C9000003F112020110E000000008080800000E5
:104CA000000E112020201100000000808088F800F4
:104CB000000E112020103F20000080808080000026
:104CC000001F222222221300008080F0888888188A
:104CD0000020203F20200000000080808080800095
:104CE000006B94949493600008F80080808000002A
:104CF000203F210000203F20008098980000000005
:104D00000020203F20200000000000809898000034
:104D100000C08080807F000008F800008080800054
:104D2000203F24022D302000000808F80000000079
:104D30000020203F20200000808080808080800034
:104D4000203F20003F20003F8080008080800000C6
:104D5000203F210000203F20000080808080000054
:104D6000001F202020201F00808000808000000085
:104D700080FFA12020110E000000008080808000B4
:104D8000000E112020A0FF808080800080808000A5
:104D900020203F21200001000000808080808000D2
:104DA0000033242424241900008080E08080000047
:104DB0000000001F20200000808000000080800094
:104DC000001F202020103F208080800000808080F5
:104DD00000010E3008060100808000800080808085
:104DE0000F300C030C300F000080800080808000AA
:104DF0000020312E0E3120008080800000808080D5
:104E000080818E7018060100008080808080800084
:104E10000021302C2221300000000000807C0202A2
:104E200000000000003F404000000000FF000000C4
:104E300000000000FF0000000002027C8000000073
:104E40000040403F0000000000060101020204048F
:104E50000000000000000000300000000000000022
:104E60000000000000000000000000000000000042
:104E70000000000000000000010202030405060714
:104E800008090A0B0C0D0E0F101001020203040595
:104E9000060708090A0B0C0D0E0F10100000000089
:104EA00000000000010203040607080900000000DA
:104EB0000102030400404040404040404040414126
:104EC00041414140404040404040404040404040DF
:104ED0004040404040050202020202020202020279
:104EE0000202020202202020202020202020200276
:104EF0000202020202029090909090901010101006
:104F000010101010101010101010101010101010A1
:104F10000202020202028888888888880808080835
:104F20000808080808080808080808080808080801
:104F30000202020240000000B54E00087B226964B4
:104F4000223A22313233222C22706172616D732237
:104F50003A7B2254656D70223A7B2276616C7565CE
:104F6000223A25647D2C2248756D223A7B22766197
:104F70006C7565223A25647D2C22416C61726D222C
:104F80003A7B2276616C7565223A25737D2C224C22
:104F90004544223A7B2276616C7565223A25737D01
:104FA0002C22676173223A7B2276616C7565223A06
:104FB00025647D2C2268756D616E223A7B227661B4
:104FC0006C7565223A25737D2C22646F6F72223ACC
:104FD0007B2276616C7565223A25737D2C225245C1
:104FE0004C415931223A7B2276616C7565223A2513
:104FF000737D2C2252454C415932223A7B227661F4
:105000006C7565223A25737D2C2273656375726910
:105010007479223A7B2276616C7565223A25737D1C
:105020007D7D00004450000800000020600000006A
:1050300048410008A450000860000020200D000036
:1050400058410008100000000000000000000000AF
:105050000000000000000000000000000000000050
:105060000000000000000000000000000000000040
:105070000000000000000000000000000000000030
:10508000000000000000000000000000010000001F
:10509000100000000000000000127A000000000074
:0450A000000000000C
:04000005080000ED02
:00000001FF
